{
  "_format": "hh-sol-artifact-1",
  "contractName": "IPToken",
  "sourceName": "contracts/1_IPToken.sol",
  "abi": [
    {
      "inputs": [
        {
          "internalType": "uint256",
          "name": "cap",
          "type": "uint256"
        },
        {
          "internalType": "uint256",
          "name": "mintAtLaunch",
          "type": "uint256"
        },
        {
          "internalType": "uint256",
          "name": "reward",
          "type": "uint256"
        }
      ],
      "stateMutability": "nonpayable",
      "type": "constructor"
    },
    {
      "inputs": [
        {
          "internalType": "uint256",
          "name": "increasedSupply",
          "type": "uint256"
        },
        {
          "internalType": "uint256",
          "name": "cap",
          "type": "uint256"
        }
      ],
      "name": "ERC20ExceededCap",
      "type": "error"
    },
    {
      "inputs": [
        {
          "internalType": "address",
          "name": "spender",
          "type": "address"
        },
        {
          "internalType": "uint256",
          "name": "allowance",
          "type": "uint256"
        },
        {
          "internalType": "uint256",
          "name": "needed",
          "type": "uint256"
        }
      ],
      "name": "ERC20InsufficientAllowance",
      "type": "error"
    },
    {
      "inputs": [
        {
          "internalType": "address",
          "name": "sender",
          "type": "address"
        },
        {
          "internalType": "uint256",
          "name": "balance",
          "type": "uint256"
        },
        {
          "internalType": "uint256",
          "name": "needed",
          "type": "uint256"
        }
      ],
      "name": "ERC20InsufficientBalance",
      "type": "error"
    },
    {
      "inputs": [
        {
          "internalType": "address",
          "name": "approver",
          "type": "address"
        }
      ],
      "name": "ERC20InvalidApprover",
      "type": "error"
    },
    {
      "inputs": [
        {
          "internalType": "uint256",
          "name": "cap",
          "type": "uint256"
        }
      ],
      "name": "ERC20InvalidCap",
      "type": "error"
    },
    {
      "inputs": [
        {
          "internalType": "address",
          "name": "receiver",
          "type": "address"
        }
      ],
      "name": "ERC20InvalidReceiver",
      "type": "error"
    },
    {
      "inputs": [
        {
          "internalType": "address",
          "name": "sender",
          "type": "address"
        }
      ],
      "name": "ERC20InvalidSender",
      "type": "error"
    },
    {
      "inputs": [
        {
          "internalType": "address",
          "name": "spender",
          "type": "address"
        }
      ],
      "name": "ERC20InvalidSpender",
      "type": "error"
    },
    {
      "anonymous": false,
      "inputs": [
        {
          "indexed": true,
          "internalType": "address",
          "name": "owner",
          "type": "address"
        },
        {
          "indexed": true,
          "internalType": "address",
          "name": "spender",
          "type": "address"
        },
        {
          "indexed": false,
          "internalType": "uint256",
          "name": "value",
          "type": "uint256"
        }
      ],
      "name": "Approval",
      "type": "event"
    },
    {
      "anonymous": false,
      "inputs": [
        {
          "indexed": true,
          "internalType": "address",
          "name": "from",
          "type": "address"
        },
        {
          "indexed": true,
          "internalType": "address",
          "name": "to",
          "type": "address"
        },
        {
          "indexed": false,
          "internalType": "uint256",
          "name": "value",
          "type": "uint256"
        }
      ],
      "name": "Transfer",
      "type": "event"
    },
    {
      "inputs": [
        {
          "internalType": "address",
          "name": "owner",
          "type": "address"
        },
        {
          "internalType": "address",
          "name": "spender",
          "type": "address"
        }
      ],
      "name": "allowance",
      "outputs": [
        {
          "internalType": "uint256",
          "name": "",
          "type": "uint256"
        }
      ],
      "stateMutability": "view",
      "type": "function"
    },
    {
      "inputs": [
        {
          "internalType": "address",
          "name": "spender",
          "type": "address"
        },
        {
          "internalType": "uint256",
          "name": "value",
          "type": "uint256"
        }
      ],
      "name": "approve",
      "outputs": [
        {
          "internalType": "bool",
          "name": "",
          "type": "bool"
        }
      ],
      "stateMutability": "nonpayable",
      "type": "function"
    },
    {
      "inputs": [
        {
          "internalType": "address",
          "name": "account",
          "type": "address"
        }
      ],
      "name": "balanceOf",
      "outputs": [
        {
          "internalType": "uint256",
          "name": "",
          "type": "uint256"
        }
      ],
      "stateMutability": "view",
      "type": "function"
    },
    {
      "inputs": [],
      "name": "blockReward",
      "outputs": [
        {
          "internalType": "uint256",
          "name": "",
          "type": "uint256"
        }
      ],
      "stateMutability": "view",
      "type": "function"
    },
    {
      "inputs": [
        {
          "internalType": "uint256",
          "name": "value",
          "type": "uint256"
        }
      ],
      "name": "burn",
      "outputs": [],
      "stateMutability": "nonpayable",
      "type": "function"
    },
    {
      "inputs": [
        {
          "internalType": "address",
          "name": "account",
          "type": "address"
        },
        {
          "internalType": "uint256",
          "name": "value",
          "type": "uint256"
        }
      ],
      "name": "burnFrom",
      "outputs": [],
      "stateMutability": "nonpayable",
      "type": "function"
    },
    {
      "inputs": [],
      "name": "cap",
      "outputs": [
        {
          "internalType": "uint256",
          "name": "",
          "type": "uint256"
        }
      ],
      "stateMutability": "view",
      "type": "function"
    },
    {
      "inputs": [],
      "name": "decimals",
      "outputs": [
        {
          "internalType": "uint8",
          "name": "",
          "type": "uint8"
        }
      ],
      "stateMutability": "view",
      "type": "function"
    },
    {
      "inputs": [],
      "name": "name",
      "outputs": [
        {
          "internalType": "string",
          "name": "",
          "type": "string"
        }
      ],
      "stateMutability": "view",
      "type": "function"
    },
    {
      "inputs": [
        {
          "internalType": "address",
          "name": "contractAddress",
          "type": "address"
        }
      ],
      "name": "readApprovalFor",
      "outputs": [
        {
          "internalType": "uint256",
          "name": "",
          "type": "uint256"
        }
      ],
      "stateMutability": "view",
      "type": "function"
    },
    {
      "inputs": [
        {
          "internalType": "address",
          "name": "approvedAddress",
          "type": "address"
        }
      ],
      "name": "revokeApproval",
      "outputs": [
        {
          "internalType": "bool",
          "name": "",
          "type": "bool"
        }
      ],
      "stateMutability": "nonpayable",
      "type": "function"
    },
    {
      "inputs": [],
      "name": "symbol",
      "outputs": [
        {
          "internalType": "string",
          "name": "",
          "type": "string"
        }
      ],
      "stateMutability": "view",
      "type": "function"
    },
    {
      "inputs": [],
      "name": "totalMined",
      "outputs": [
        {
          "internalType": "uint256",
          "name": "",
          "type": "uint256"
        }
      ],
      "stateMutability": "view",
      "type": "function"
    },
    {
      "inputs": [],
      "name": "totalSupply",
      "outputs": [
        {
          "internalType": "uint256",
          "name": "",
          "type": "uint256"
        }
      ],
      "stateMutability": "view",
      "type": "function"
    },
    {
      "inputs": [
        {
          "internalType": "address",
          "name": "to",
          "type": "address"
        },
        {
          "internalType": "uint256",
          "name": "value",
          "type": "uint256"
        }
      ],
      "name": "transfer",
      "outputs": [
        {
          "internalType": "bool",
          "name": "",
          "type": "bool"
        }
      ],
      "stateMutability": "nonpayable",
      "type": "function"
    },
    {
      "inputs": [
        {
          "internalType": "address",
          "name": "from",
          "type": "address"
        },
        {
          "internalType": "address",
          "name": "to",
          "type": "address"
        },
        {
          "internalType": "uint256",
          "name": "value",
          "type": "uint256"
        }
      ],
      "name": "transferFrom",
      "outputs": [
        {
          "internalType": "bool",
          "name": "",
          "type": "bool"
        }
      ],
      "stateMutability": "nonpayable",
      "type": "function"
    },
    {
      "stateMutability": "payable",
      "type": "receive"
    }
  ],
  "bytecode": "0x60a06040523480156200001157600080fd5b506040516200134e3803806200134e8339810160408190526200003491620004e7565b6200004883670de0b6b3a76400006200052c565b6040518060400160405280600781526020016624a82a37b5b2b760c91b8152506040518060400160405280600381526020016212541560ea1b8152508160039081620000959190620005f0565b506004620000a48282620005f0565b50505080600003620000d15760405163392e1e2760e01b8152600060048201526024015b60405180910390fd5b608052620000f333620000ed84670de0b6b3a76400006200052c565b6200012b565b6200010781670de0b6b3a76400006200052c565b6005556200011e82670de0b6b3a76400006200052c565b60065550620006d2915050565b608051816200013960025490565b620001459190620006bc565b1115620001955760405162461bcd60e51b815260206004820152601960248201527f45524332304361707065643a20636170206578636565646564000000000000006044820152606401620000c8565b620001a18282620001a5565b5050565b6001600160a01b038216620001d15760405163ec442f0560e01b815260006004820152602401620000c8565b620001a1600083834115801590620001f157506001600160a01b03831615155b80156200020757506001600160a01b0382164114155b80156200021357504115155b1562000223576200022362000235565b620002308383836200027a565b505050565b60055415620002785762000248620002e6565b6200025c416005546200012b60201b60201c565b60055460066000828254620002729190620006bc565b90915550505b565b62000287838383620003b4565b6001600160a01b03831662000230576000620002a260805190565b90506000620002b060025490565b905081811115620002df5760405163279e7e1560e21b81526004810182905260248101839052604401620000c8565b5050505050565b6a52b7d2dcc80cd2e40000006006541062000302576000600555565b6a51af203a058ca9dac000006006541062000325576756bc75e2d6310000600555565b6a50a66d97430c80d180000060065410620003485767ad78ebc5ac620000600555565b6a4e950851be0c2ebf000000600654106200036c5768015af1d78b58c40000600555565b6a4a723dc6b40b8a9a0000006006541062000390576802b5e3af16b1880000600555565b6a422ca8b0a00a425000000060065410620002785768056bc75e2d63100000600555565b6001600160a01b038316620003e3578060026000828254620003d79190620006bc565b90915550620004579050565b6001600160a01b03831660009081526020819052604090205481811015620004385760405163391434e360e21b81526001600160a01b03851660048201526024810182905260448101839052606401620000c8565b6001600160a01b03841660009081526020819052604090209082900390555b6001600160a01b038216620004755760028054829003905562000494565b6001600160a01b03821660009081526020819052604090208054820190555b816001600160a01b0316836001600160a01b03167fddf252ad1be2c89b69c2b068fc378daa952ba7f163c4a11628f55a4df523b3ef83604051620004da91815260200190565b60405180910390a3505050565b600080600060608486031215620004fd57600080fd5b8351925060208401519150604084015190509250925092565b634e487b7160e01b600052601160045260246000fd5b808202811582820484141762000546576200054662000516565b92915050565b634e487b7160e01b600052604160045260246000fd5b600181811c908216806200057757607f821691505b6020821081036200059857634e487b7160e01b600052602260045260246000fd5b50919050565b601f8211156200023057600081815260208120601f850160051c81016020861015620005c75750805b601f850160051c820191505b81811015620005e857828155600101620005d3565b505050505050565b81516001600160401b038111156200060c576200060c6200054c565b62000624816200061d845462000562565b846200059e565b602080601f8311600181146200065c5760008415620006435750858301515b600019600386901b1c1916600185901b178555620005e8565b600085815260208120601f198616915b828110156200068d578886015182559484019460019091019084016200066c565b5085821015620006ac5787850151600019600388901b60f8161c191681555b5050505050600190811b01905550565b8082018082111562000546576200054662000516565b608051610c52620006fc6000396000818161024301528181610783015261089f0152610c526000f3fe6080604052600436106100f75760003560e01c8063484685b01161008a57806395d89b411161005957806395d89b4114610315578063a9059cbb1461032a578063dd62ed3e1461034a578063ff8e1dad1461036a57600080fd5b8063484685b0146102895780635556db65146102a957806370a08231146102bf57806379cc6790146102f557600080fd5b806323b872dd116100c657806323b872dd146101f8578063313ce56714610218578063355274ea1461023457806342966c681461026757600080fd5b806306fdde0314610164578063095ea7b31461018f5780630ac168a1146101bf57806318160ddd146101e357600080fd5b3661015f5760405162461bcd60e51b815260206004820152602d60248201527f53656e64696e6720657468657220746f207468697320636f6e7472616374206960448201526c1cc81b9bdd08185b1b1bddd959609a1b60648201526084015b60405180910390fd5b600080fd5b34801561017057600080fd5b5061017961038a565b6040516101869190610a8a565b60405180910390f35b34801561019b57600080fd5b506101af6101aa366004610af4565b61041c565b6040519015158152602001610186565b3480156101cb57600080fd5b506101d560055481565b604051908152602001610186565b3480156101ef57600080fd5b506002546101d5565b34801561020457600080fd5b506101af610213366004610b1e565b610436565b34801561022457600080fd5b5060405160128152602001610186565b34801561024057600080fd5b507f00000000000000000000000000000000000000000000000000000000000000006101d5565b34801561027357600080fd5b50610287610282366004610b5a565b61045a565b005b34801561029557600080fd5b506101af6102a4366004610b73565b610467565b3480156102b557600080fd5b506101d560065481565b3480156102cb57600080fd5b506101d56102da366004610b73565b6001600160a01b031660009081526020819052604090205490565b34801561030157600080fd5b50610287610310366004610af4565b61047d565b34801561032157600080fd5b50610179610496565b34801561033657600080fd5b506101af610345366004610af4565b6104a5565b34801561035657600080fd5b506101d5610365366004610b8e565b6104b3565b34801561037657600080fd5b506101d5610385366004610b73565b6104de565b60606003805461039990610bc1565b80601f01602080910402602001604051908101604052809291908181526020018280546103c590610bc1565b80156104125780601f106103e757610100808354040283529160200191610412565b820191906000526020600020905b8154815290600101906020018083116103f557829003601f168201915b5050505050905090565b60003361042a8185856104f2565b60019150505b92915050565b600033610444858285610504565b61044f85858561056a565b506001949350505050565b61046433826105c9565b50565b600061047482600061041c565b50600192915050565b610488823383610504565b61049282826105c9565b5050565b60606004805461039990610bc1565b60003361042a81858561056a565b6001600160a01b03918216600090815260016020908152604080832093909416825291909152205490565b6000806104eb33846104b3565b9392505050565b6104ff83838360016105ff565b505050565b600061051084846104b3565b90506000198114610564578181101561055557604051637dc7a0d960e11b81526001600160a01b03841660048201526024810182905260448101839052606401610156565b610564848484840360006105ff565b50505050565b6001600160a01b03831661059457604051634b637e8f60e11b815260006004820152602401610156565b6001600160a01b0382166105be5760405163ec442f0560e01b815260006004820152602401610156565b6104ff8383836106d4565b6001600160a01b0382166105f357604051634b637e8f60e11b815260006004820152602401610156565b610492826000836106d4565b6001600160a01b0384166106295760405163e602df0560e01b815260006004820152602401610156565b6001600160a01b03831661065357604051634a1406b160e11b815260006004820152602401610156565b6001600160a01b038085166000908152600160209081526040808320938716835292905220829055801561056457826001600160a01b0316846001600160a01b03167f8c5be1e5ebec7d5bd14f71427d1e84f3dd0314c0f7b2291e5b200ac8c7c3b925846040516106c691815260200190565b60405180910390a350505050565b6001600160a01b03831641148015906106f557506001600160a01b03831615155b801561070a57506001600160a01b0382164114155b801561071557504115155b156107225761072261072d565b6104ff838383610765565b600554156107635761073d6107d5565b6107494160055461089d565b6005546006600082825461075d9190610bfb565b90915550505b565b61077083838361092a565b6001600160a01b0383166104ff576002547f000000000000000000000000000000000000000000000000000000000000000090818111156107ce5760405163279e7e1560e21b81526004810182905260248101839052604401610156565b5050505050565b6a52b7d2dcc80cd2e4000000600654106107f0576000600555565b6a51af203a058ca9dac0000060065410610812576756bc75e2d6310000600555565b6a50a66d97430c80d1800000600654106108345767ad78ebc5ac620000600555565b6a4e950851be0c2ebf000000600654106108575768015af1d78b58c40000600555565b6a4a723dc6b40b8a9a0000006006541061087a576802b5e3af16b1880000600555565b6a422ca8b0a00a4250000000600654106107635768056bc75e2d63100000600555565b7f0000000000000000000000000000000000000000000000000000000000000000816108c860025490565b6108d29190610bfb565b11156109205760405162461bcd60e51b815260206004820152601960248201527f45524332304361707065643a20636170206578636565646564000000000000006044820152606401610156565b6104928282610a54565b6001600160a01b03831661095557806002600082825461094a9190610bfb565b909155506109c79050565b6001600160a01b038316600090815260208190526040902054818110156109a85760405163391434e360e21b81526001600160a01b03851660048201526024810182905260448101839052606401610156565b6001600160a01b03841660009081526020819052604090209082900390555b6001600160a01b0382166109e357600280548290039055610a02565b6001600160a01b03821660009081526020819052604090208054820190555b816001600160a01b0316836001600160a01b03167fddf252ad1be2c89b69c2b068fc378daa952ba7f163c4a11628f55a4df523b3ef83604051610a4791815260200190565b60405180910390a3505050565b6001600160a01b038216610a7e5760405163ec442f0560e01b815260006004820152602401610156565b610492600083836106d4565b600060208083528351808285015260005b81811015610ab757858101830151858201604001528201610a9b565b506000604082860101526040601f19601f8301168501019250505092915050565b80356001600160a01b0381168114610aef57600080fd5b919050565b60008060408385031215610b0757600080fd5b610b1083610ad8565b946020939093013593505050565b600080600060608486031215610b3357600080fd5b610b3c84610ad8565b9250610b4a60208501610ad8565b9150604084013590509250925092565b600060208284031215610b6c57600080fd5b5035919050565b600060208284031215610b8557600080fd5b6104eb82610ad8565b60008060408385031215610ba157600080fd5b610baa83610ad8565b9150610bb860208401610ad8565b90509250929050565b600181811c90821680610bd557607f821691505b602082108103610bf557634e487b7160e01b600052602260045260246000fd5b50919050565b8082018082111561043057634e487b7160e01b600052601160045260246000fdfea264697066735822122057dd37e3ba0d06a76576e492c1da7af04487bbce4391c55d27c27549c48a60a264736f6c63430008140033",
  "linkReferences": {},
  "deployedLinkReferences": {}
}