{
  "_format": "hh-sol-artifact-1",
  "contractName": "IPtrade",
  "sourceName": "contracts/2_IPmanagement.sol",
  "abi": [
    {
      "inputs": [
        {
          "internalType": "address",
          "name": "tokenAddress",
          "type": "address"
        }
      ],
      "stateMutability": "payable",
      "type": "constructor"
    },
    {
      "inputs": [],
      "name": "ReentrancyGuardReentrantCall",
      "type": "error"
    },
    {
      "anonymous": false,
      "inputs": [
        {
          "indexed": true,
          "internalType": "address",
          "name": "owner",
          "type": "address"
        },
        {
          "indexed": true,
          "internalType": "string",
          "name": "md5",
          "type": "string"
        }
      ],
      "name": "IPRegistered",
      "type": "event"
    },
    {
      "anonymous": false,
      "inputs": [
        {
          "indexed": false,
          "internalType": "address",
          "name": "from",
          "type": "address"
        },
        {
          "indexed": false,
          "internalType": "uint256",
          "name": "amount",
          "type": "uint256"
        }
      ],
      "name": "IPTReceived",
      "type": "event"
    },
    {
      "anonymous": false,
      "inputs": [
        {
          "indexed": true,
          "internalType": "address",
          "name": "to",
          "type": "address"
        },
        {
          "indexed": true,
          "internalType": "uint256",
          "name": "amount",
          "type": "uint256"
        }
      ],
      "name": "IPTWithdrawal",
      "type": "event"
    },
    {
      "anonymous": false,
      "inputs": [
        {
          "indexed": true,
          "internalType": "address",
          "name": "from",
          "type": "address"
        },
        {
          "indexed": true,
          "internalType": "address",
          "name": "to",
          "type": "address"
        },
        {
          "indexed": true,
          "internalType": "string",
          "name": "md5",
          "type": "string"
        },
        {
          "indexed": false,
          "internalType": "uint256",
          "name": "amount",
          "type": "uint256"
        }
      ],
      "name": "IPTransferred",
      "type": "event"
    },
    {
      "anonymous": false,
      "inputs": [
        {
          "indexed": true,
          "internalType": "address",
          "name": "ipowner",
          "type": "address"
        },
        {
          "indexed": true,
          "internalType": "string",
          "name": "md5",
          "type": "string"
        }
      ],
      "name": "IpDeleted",
      "type": "event"
    },
    {
      "anonymous": false,
      "inputs": [
        {
          "indexed": true,
          "internalType": "address",
          "name": "to",
          "type": "address"
        },
        {
          "indexed": false,
          "internalType": "uint256",
          "name": "amount",
          "type": "uint256"
        }
      ],
      "name": "OwnerLostIPTWithdrawn",
      "type": "event"
    },
    {
      "anonymous": false,
      "inputs": [
        {
          "indexed": true,
          "internalType": "address",
          "name": "to",
          "type": "address"
        },
        {
          "indexed": false,
          "internalType": "uint256",
          "name": "amount",
          "type": "uint256"
        }
      ],
      "name": "OwnerSpentIPTWithdrawn",
      "type": "event"
    },
    {
      "anonymous": false,
      "inputs": [
        {
          "indexed": true,
          "internalType": "address",
          "name": "seller",
          "type": "address"
        },
        {
          "indexed": true,
          "internalType": "string",
          "name": "md5",
          "type": "string"
        }
      ],
      "name": "SalesIntentCancelled",
      "type": "event"
    },
    {
      "anonymous": false,
      "inputs": [
        {
          "indexed": true,
          "internalType": "address",
          "name": "seller",
          "type": "address"
        },
        {
          "indexed": true,
          "internalType": "string",
          "name": "md5",
          "type": "string"
        },
        {
          "indexed": false,
          "internalType": "uint256",
          "name": "salesPrice",
          "type": "uint256"
        },
        {
          "indexed": true,
          "internalType": "address",
          "name": "buyer",
          "type": "address"
        }
      ],
      "name": "SalesIntentCreated",
      "type": "event"
    },
    {
      "anonymous": false,
      "inputs": [
        {
          "indexed": true,
          "internalType": "address",
          "name": "requester",
          "type": "address"
        },
        {
          "indexed": false,
          "internalType": "uint256",
          "name": "amount",
          "type": "uint256"
        }
      ],
      "name": "TokensRequested",
      "type": "event"
    },
    {
      "stateMutability": "payable",
      "type": "fallback"
    },
    {
      "inputs": [],
      "name": "ONLY_OWNERHelper",
      "outputs": [
        {
          "internalType": "address",
          "name": "",
          "type": "address"
        }
      ],
      "stateMutability": "view",
      "type": "function"
    },
    {
      "inputs": [
        {
          "internalType": "string",
          "name": "str",
          "type": "string"
        },
        {
          "internalType": "uint256",
          "name": "salesPrice",
          "type": "uint256"
        },
        {
          "internalType": "bool",
          "name": "onApproval",
          "type": "bool"
        }
      ],
      "name": "buyerBuysIP",
      "outputs": [],
      "stateMutability": "nonpayable",
      "type": "function"
    },
    {
      "inputs": [
        {
          "internalType": "string",
          "name": "str",
          "type": "string"
        }
      ],
      "name": "deleteIP",
      "outputs": [],
      "stateMutability": "nonpayable",
      "type": "function"
    },
    {
      "inputs": [
        {
          "internalType": "uint256",
          "name": "amount",
          "type": "uint256"
        }
      ],
      "name": "depositIPT",
      "outputs": [],
      "stateMutability": "payable",
      "type": "function"
    },
    {
      "inputs": [],
      "name": "freeIpTokenwithdrawal",
      "outputs": [
        {
          "internalType": "uint256",
          "name": "",
          "type": "uint256"
        }
      ],
      "stateMutability": "view",
      "type": "function"
    },
    {
      "inputs": [],
      "name": "freeTokensBool",
      "outputs": [
        {
          "internalType": "bool",
          "name": "",
          "type": "bool"
        }
      ],
      "stateMutability": "view",
      "type": "function"
    },
    {
      "inputs": [
        {
          "internalType": "string",
          "name": "str",
          "type": "string"
        }
      ],
      "name": "getIP",
      "outputs": [
        {
          "components": [
            {
              "internalType": "bool",
              "name": "exists",
              "type": "bool"
            },
            {
              "internalType": "address",
              "name": "owner",
              "type": "address"
            },
            {
              "internalType": "uint256",
              "name": "creationTimeStamp",
              "type": "uint256"
            }
          ],
          "internalType": "struct IPtrade.IPowner",
          "name": "",
          "type": "tuple"
        }
      ],
      "stateMutability": "view",
      "type": "function"
    },
    {
      "inputs": [
        {
          "internalType": "string",
          "name": "str",
          "type": "string"
        }
      ],
      "name": "getIpTransactions",
      "outputs": [
        {
          "internalType": "address[]",
          "name": "",
          "type": "address[]"
        }
      ],
      "stateMutability": "view",
      "type": "function"
    },
    {
      "inputs": [],
      "name": "getIptBalance",
      "outputs": [
        {
          "internalType": "uint256",
          "name": "",
          "type": "uint256"
        }
      ],
      "stateMutability": "view",
      "type": "function"
    },
    {
      "inputs": [
        {
          "internalType": "string",
          "name": "str",
          "type": "string"
        }
      ],
      "name": "getSalesIntent",
      "outputs": [
        {
          "components": [
            {
              "internalType": "bool",
              "name": "exists",
              "type": "bool"
            },
            {
              "internalType": "address",
              "name": "owner_address",
              "type": "address"
            },
            {
              "internalType": "address",
              "name": "buyer_address",
              "type": "address"
            },
            {
              "internalType": "uint256",
              "name": "salesPrice",
              "type": "uint256"
            },
            {
              "internalType": "uint256",
              "name": "creationTimeStamp",
              "type": "uint256"
            }
          ],
          "internalType": "struct IPtrade.Onsale",
          "name": "",
          "type": "tuple"
        }
      ],
      "stateMutability": "view",
      "type": "function"
    },
    {
      "inputs": [],
      "name": "iptInContract",
      "outputs": [
        {
          "internalType": "uint256",
          "name": "",
          "type": "uint256"
        }
      ],
      "stateMutability": "view",
      "type": "function"
    },
    {
      "inputs": [],
      "name": "lockTime",
      "outputs": [
        {
          "internalType": "uint256",
          "name": "",
          "type": "uint256"
        }
      ],
      "stateMutability": "view",
      "type": "function"
    },
    {
      "inputs": [],
      "name": "owner",
      "outputs": [
        {
          "internalType": "address payable",
          "name": "",
          "type": "address"
        }
      ],
      "stateMutability": "view",
      "type": "function"
    },
    {
      "inputs": [],
      "name": "registerIPCostIpt",
      "outputs": [
        {
          "internalType": "uint256",
          "name": "",
          "type": "uint256"
        }
      ],
      "stateMutability": "view",
      "type": "function"
    },
    {
      "inputs": [],
      "name": "requestTokens",
      "outputs": [],
      "stateMutability": "nonpayable",
      "type": "function"
    },
    {
      "inputs": [
        {
          "internalType": "string",
          "name": "str",
          "type": "string"
        }
      ],
      "name": "sellerCancelsSalesIntent",
      "outputs": [],
      "stateMutability": "nonpayable",
      "type": "function"
    },
    {
      "inputs": [
        {
          "internalType": "string",
          "name": "str",
          "type": "string"
        },
        {
          "internalType": "uint256",
          "name": "salesPrice",
          "type": "uint256"
        },
        {
          "internalType": "address",
          "name": "buyerAddress",
          "type": "address"
        },
        {
          "internalType": "bool",
          "name": "onApproval",
          "type": "bool"
        }
      ],
      "name": "sellerCreatesSalesIntent",
      "outputs": [],
      "stateMutability": "nonpayable",
      "type": "function"
    },
    {
      "inputs": [
        {
          "internalType": "uint256",
          "name": "amount",
          "type": "uint256"
        }
      ],
      "name": "setFreeIpTokenwithdrawal",
      "outputs": [],
      "stateMutability": "nonpayable",
      "type": "function"
    },
    {
      "inputs": [
        {
          "internalType": "bool",
          "name": "_freeTokensBool",
          "type": "bool"
        }
      ],
      "name": "setFreetokensBool",
      "outputs": [],
      "stateMutability": "nonpayable",
      "type": "function"
    },
    {
      "inputs": [
        {
          "internalType": "address",
          "name": "_ONLY_OWNERHelper",
          "type": "address"
        }
      ],
      "name": "setHelper",
      "outputs": [],
      "stateMutability": "nonpayable",
      "type": "function"
    },
    {
      "inputs": [
        {
          "internalType": "string",
          "name": "str",
          "type": "string"
        },
        {
          "internalType": "bool",
          "name": "onApproval",
          "type": "bool"
        }
      ],
      "name": "setIP",
      "outputs": [],
      "stateMutability": "nonpayable",
      "type": "function"
    },
    {
      "inputs": [
        {
          "internalType": "uint256",
          "name": "register",
          "type": "uint256"
        },
        {
          "internalType": "uint256",
          "name": "transfer",
          "type": "uint256"
        }
      ],
      "name": "setIPCostIpt",
      "outputs": [],
      "stateMutability": "nonpayable",
      "type": "function"
    },
    {
      "inputs": [
        {
          "internalType": "uint256",
          "name": "amount",
          "type": "uint256"
        }
      ],
      "name": "setLockTime",
      "outputs": [],
      "stateMutability": "nonpayable",
      "type": "function"
    },
    {
      "inputs": [
        {
          "internalType": "address payable",
          "name": "new_owner",
          "type": "address"
        }
      ],
      "name": "setNewOwner",
      "outputs": [],
      "stateMutability": "nonpayable",
      "type": "function"
    },
    {
      "inputs": [],
      "name": "spentIptOdometer",
      "outputs": [
        {
          "internalType": "uint256",
          "name": "",
          "type": "uint256"
        }
      ],
      "stateMutability": "view",
      "type": "function"
    },
    {
      "inputs": [],
      "name": "token",
      "outputs": [
        {
          "internalType": "contract IERC20",
          "name": "",
          "type": "address"
        }
      ],
      "stateMutability": "view",
      "type": "function"
    },
    {
      "inputs": [],
      "name": "transferIPCostIpt",
      "outputs": [
        {
          "internalType": "uint256",
          "name": "",
          "type": "uint256"
        }
      ],
      "stateMutability": "view",
      "type": "function"
    },
    {
      "inputs": [],
      "name": "unregisteredIPT",
      "outputs": [],
      "stateMutability": "nonpayable",
      "type": "function"
    },
    {
      "inputs": [
        {
          "internalType": "uint256",
          "name": "amount",
          "type": "uint256"
        }
      ],
      "name": "userIptWithdrawal",
      "outputs": [],
      "stateMutability": "nonpayable",
      "type": "function"
    },
    {
      "inputs": [],
      "name": "withdrawSpentIpt",
      "outputs": [],
      "stateMutability": "nonpayable",
      "type": "function"
    },
    {
      "stateMutability": "payable",
      "type": "receive"
    }
  ],
  "bytecode": "0x6080604081905268056bc75e2d631000006004819055600555680ad78ebc5ac620000060065562093a806007556008805460ff1916600117905560006009819055600a5562002dc2388190039081908339810160408190526200006291620000a2565b60016000819055600380546001600160a01b039093166001600160a01b0319938416179055805482163390811790915560028054909216179055620000d4565b600060208284031215620000b557600080fd5b81516001600160a01b0381168114620000cd57600080fd5b9392505050565b612cde80620000e46000396000f3fe6080604052600436106101d15760003560e01c80638b5c01cd116100f7578063c5653f7611610095578063efd2769c11610064578063efd2769c146105af578063f5a1f5b4146105cf578063fb479abe146105ef578063fc0c546a14610605576101f7565b8063c5653f7614610544578063cb79d4e714610559578063d305b92114610579578063e2925cba1461058f576101f7565b8063986ccc7f116100d1578063986ccc7f146104ba5780639fd7db95146104da578063ae04d45d14610504578063b3ad927a14610524576101f7565b80638b5c01cd146104385780638da5cb5b1461048557806394dffd80146104a5576101f7565b80632c35692e1161016f57806357efc8941161013e57806357efc8941461035c57806368d4de361461037e57806370ea76d9146103eb5780637cf1665f1461040b576101f7565b80632c35692e146102f1578063359cf2b7146103115780634050fb46146103265780635133c71314610346576101f7565b806308efdc85116101ab57806308efdc851461026d57806309e0c2d5146102a55780630d668087146102c5578063177cad1c146102db576101f7565b80630243d8571461020f57806302de451414610224578063038253cc14610244576101f7565b366101f75760405162461bcd60e51b81526004016101ee90612836565b60405180910390fd5b60405162461bcd60e51b81526004016101ee90612836565b61022261021d3660046128a8565b610625565b005b34801561023057600080fd5b5061022261023f3660046128a8565b610861565b34801561025057600080fd5b5061025a60055481565b6040519081526020015b60405180910390f35b34801561027957600080fd5b5060025461028d906001600160a01b031681565b6040516001600160a01b039091168152602001610264565b3480156102b157600080fd5b506102226102c03660046128a8565b6108a5565b3480156102d157600080fd5b5061025a60075481565b3480156102e757600080fd5b5061025a60095481565b3480156102fd57600080fd5b5061022261030c3660046128cf565b6109c4565b34801561031d57600080fd5b50610222610a16565b34801561033257600080fd5b5061022261034136600461293c565b610c6b565b34801561035257600080fd5b5061025a60045481565b34801561036857600080fd5b50336000908152600b602052604090205461025a565b34801561038a57600080fd5b5061039e610399366004612993565b610ff6565b604080518251151581526020808401516001600160a01b0390811691830191909152838301511691810191909152606080830151908201526080918201519181019190915260a001610264565b3480156103f757600080fd5b506102226104063660046129d5565b611119565b34801561041757600080fd5b5061042b610426366004612993565b611163565b60405161026491906129f7565b34801561044457600080fd5b50610458610453366004612993565b611216565b604080518251151581526020808401516001600160a01b0316908201529181015190820152606001610264565b34801561049157600080fd5b5060015461028d906001600160a01b031681565b3480156104b157600080fd5b5061022261135d565b3480156104c657600080fd5b506102226104d5366004612a59565b6114a1565b3480156104e657600080fd5b506008546104f49060ff1681565b6040519015158152602001610264565b34801561051057600080fd5b5061022261051f3660046128a8565b611502565b34801561053057600080fd5b5061022261053f366004612993565b611552565b34801561055057600080fd5b506102226116f8565b34801561056557600080fd5b50610222610574366004612a76565b6118d3565b34801561058557600080fd5b5061025a600a5481565b34801561059b57600080fd5b506102226105aa366004612993565b611f33565b3480156105bb57600080fd5b506102226105ca366004612ad5565b612130565b3480156105db57600080fd5b506102226105ea366004612a59565b6124ea565b3480156105fb57600080fd5b5061025a60065481565b34801561061157600080fd5b5060035461028d906001600160a01b031681565b61062d61254b565b6003546040516370a0823160e01b815233600482015282916001600160a01b0316906370a0823190602401602060405180830381865afa158015610675573d6000803e3d6000fd5b505050506040513d601f19601f820116820180604052508101906106999190612b49565b10156106d25760405162461bcd60e51b81526020600482015260086024820152674e6f2066756e647360c01b60448201526064016101ee565b600354604051636eb1769f60e11b815233600482015230602482015282916001600160a01b03169063dd62ed3e90604401602060405180830381865afa158015610720573d6000803e3d6000fd5b505050506040513d601f19601f820116820180604052508101906107449190612b49565b10156107625760405162461bcd60e51b81526004016101ee90612b62565b6003546040516323b872dd60e01b8152336004820152306024820152604481018390526001600160a01b03909116906323b872dd906064016020604051808303816000875af11580156107b9573d6000803e3d6000fd5b505050506040513d601f19601f820116820180604052508101906107dd9190612b88565b50336000908152600b6020526040812080548392906107fd908490612bbb565b9250508190555080600a60008282546108169190612bbb565b909155505060408051338152602081018390527fe2bb67d73b621509bdef99ec426140236b94a6e48610644e43aeecd18aae656a910160405180910390a161085e6001600055565b50565b6001546001600160a01b031633148061088457506002546001600160a01b031633145b6108a05760405162461bcd60e51b81526004016101ee90612bce565b600455565b6108ad61254b565b336000908152600b60205260409020548111156108dc5760405162461bcd60e51b81526004016101ee90612bfc565b336000908152600b6020526040812080548392906108fb908490612c1c565b909155505060035460405163a9059cbb60e01b8152336004820152602481018390526001600160a01b039091169063a9059cbb906044016020604051808303816000875af1158015610951573d6000803e3d6000fd5b505050506040513d601f19601f820116820180604052508101906109759190612b88565b5080600a60008282546109889190612c1c565b9091555050604051819033907fd342977f0852e86bac04c242a36ec1f1a3eb4b30a3e7a255d5b6b432e39e12f590600090a361085e6001600055565b6001546001600160a01b03163314806109e757506002546001600160a01b031633145b610a035760405162461bcd60e51b81526004016101ee90612bce565b6008805460ff1916911515919091179055565b610a1e61254b565b60085460ff16610a605760405162461bcd60e51b815260206004820152600d60248201526c19985d58d95d0818db1bdcd959609a1b60448201526064016101ee565b600754336000908152600e6020526040902054610a7d9190612bbb565b421015610ab85760405162461bcd60e51b81526020600482015260096024820152683a393c903630ba32b960b91b60448201526064016101ee565b33610af65760405162461bcd60e51b815260206004820152600e60248201526d0726571756573742066726f6d20360941b60448201526064016101ee565b6004546001546001600160a01b03166000908152600b60205260409020541015610b4e5760405162461bcd60e51b815260206004820152600960248201526837379024a82a1030bb60b91b60448201526064016101ee565b336000818152600e60205260409081902042905560035460048054925163a9059cbb60e01b81529081019390935260248301919091526001600160a01b03169063a9059cbb906044016020604051808303816000875af1158015610bb6573d6000803e3d6000fd5b505050506040513d601f19601f82011682018060405250810190610bda9190612b88565b50600454600a6000828254610bef9190612c1c565b90915550506004546001546001600160a01b03166000908152600b602052604081208054909190610c21908490612c1c565b909155505060045460405190815233907fc3fb6c98272d7a0d5dc26727b61c00ece2e5bf3dbdc0284659e28d441c1ce06c906020015b60405180910390a2610c696001600055565b565b610c7361254b565b610cb283838080601f01602080910402602001604051908101604052809392919081815260200183838082843760009201919091525061257592505050565b610cbb57600080fd5b6000610cfc84848080601f0160208091040260200160405190810160405280939291908181526020018383808284376000920191909152506125c392505050565b6000818152600c602052604090205490915060ff1615610d4e5760405162461bcd60e51b815260206004820152600d60248201526c1a5cc81c9959da5cdd195c9959609a1b60448201526064016101ee565b81610dc657600554336000908152600b60205260409020541015610d845760405162461bcd60e51b81526004016101ee90612bfc565b600554336000908152600b602052604081208054909190610da6908490612c1c565b909155505060055460098054600090610dc0908490612bbb565b90915550505b8115610e1a57610dd8600554336125f3565b600554336000908152600b602052604081208054909190610dfa908490612c1c565b909155505060055460098054600090610e14908490612bbb565b90915550505b6000818152600c6020908152604080832080543361010081026001600160a81b031990921691909117600190811783554292810192909255600d8452918420805491820181558452919092200180546001600160a01b031916909117905560085460ff1615610fa4576004546001546001600160a01b03166000908152600b602052604090205410610fa4576003546004805460405163a9059cbb60e01b8152339281019290925260248201526001600160a01b039091169063a9059cbb906044016020604051808303816000875af1158015610efb573d6000803e3d6000fd5b505050506040513d601f19601f82011682018060405250810190610f1f9190612b88565b50600454600a6000828254610f349190612c1c565b90915550506004546001546001600160a01b03166000908152600b602052604081208054909190610f66908490612c1c565b909155505060045460405190815233907fc3fb6c98272d7a0d5dc26727b61c00ece2e5bf3dbdc0284659e28d441c1ce06c9060200160405180910390a25b8383604051610fb4929190612c2f565b6040519081900381209033907f5bad4487d7b168048a56fc9dcab8014e86f128b0b713f7db167188fc05d844fa90600090a350610ff16001600055565b505050565b6040805160a081018252600080825260208201819052918101829052606081018290526080810191909152600061106284848080601f0160208091040260200160405190810160405280939291908181526020018383808284376000920191909152506125c392505050565b6000818152600f602052604090205490915060ff166110b25760405162461bcd60e51b815260206004820152600c60248201526b4e6f7420666f722073616c6560a01b60448201526064016101ee565b6040805160a0810182526000838152600f6020818152848320805460ff8116151586526001600160a01b0361010090910481168387015260018201541695850195909552600285015460608501529490915290925260030154608082015290505b92915050565b6001546001600160a01b031633148061113c57506002546001600160a01b031633145b6111585760405162461bcd60e51b81526004016101ee90612bce565b600591909155600655565b606060006111a684848080601f0160208091040260200160405190810160405280939291908181526020018383808284376000920191909152506125c392505050565b6000818152600d6020908152604091829020805483518184028101840190945280845293945091929083018282801561120857602002820191906000526020600020905b81546001600160a01b031681526001909101906020018083116111ea575b505050505091505092915050565b604080516060810182526000808252602082018190529181019190915261127283838080601f01602080910402602001604051908101604052809392919081815260200183838082843760009201919091525061257592505050565b61127b57600080fd5b60006112bc84848080601f0160208091040260200160405190810160405280939291908181526020018383808284376000920191909152506125c392505050565b6000818152600c602052604090205490915060ff166113115760405162461bcd60e51b8152602060048201526011602482015270125408191bd95cc81b9bdd08195e1a5cdd607a1b60448201526064016101ee565b604080516060810182526000838152600c6020818152848320805460ff81161515865261010090046001600160a01b031682860152959092529052600190920154908201529392505050565b6001546001600160a01b031633148061138057506002546001600160a01b031633145b61139c5760405162461bcd60e51b81526004016101ee90612bce565b6113a461254b565b6000600954116113c65760405162461bcd60e51b81526004016101ee90612bfc565b600954600a60008282546113da9190612c1c565b909155505060035460015460095460405163a9059cbb60e01b81526001600160a01b039283166004820152602481019190915291169063a9059cbb906044016020604051808303816000875af1158015611438573d6000803e3d6000fd5b505050506040513d601f19601f8201168201806040525081019061145c9190612b88565b50600060098190556001546040519182526001600160a01b0316907f18b9ab501fb9e7ff7fffc7a10e5f359cce0f82bda01022a00ad41e52b3241f3790602001610c57565b6001546001600160a01b03163314806114c457506002546001600160a01b031633145b6114e05760405162461bcd60e51b81526004016101ee90612bce565b600280546001600160a01b0319166001600160a01b0392909216919091179055565b6001546001600160a01b031633148061152557506002546001600160a01b031633145b6115415760405162461bcd60e51b81526004016101ee90612bce565b61154c816001612c3f565b60075550565b61159182828080601f01602080910402602001604051908101604052809392919081815260200183838082843760009201919091525061257592505050565b61159a57600080fd5b60006115db83838080601f0160208091040260200160405190810160405280939291908181526020018383808284376000920191909152506125c392505050565b6000818152600c602052604090205490915061010090046001600160a01b031633146116195760405162461bcd60e51b81526004016101ee90612c56565b6000818152600f602052604090205460ff16156116695760405162461bcd60e51b815260206004820152600e60248201526d495020697320666f722073616c6560901b60448201526064016101ee565b6000818152600c6020908152604080832080546001600160a81b03191681556001908101849055600d8352818420805491820181558452919092200180546001600160a01b0319169055516116c19084908490612c2f565b6040519081900381209033907f755f66434e4f41d7e38cf98f8db9c4517ac652b337af7e5b8085cb7913be4b5490600090a3505050565b6001546001600160a01b031633148061171b57506002546001600160a01b031633145b6117375760405162461bcd60e51b81526004016101ee90612bce565b61173f61254b565b6003546040516370a0823160e01b81523060048201526000916001600160a01b0316906370a0823190602401602060405180830381865afa158015611788573d6000803e3d6000fd5b505050506040513d601f19601f820116820180604052508101906117ac9190612b49565b90506000600a54826117be9190612c1c565b116117f95760405162461bcd60e51b815260206004820152600b60248201526a139bc81b1bdcdd0812541560aa1b60448201526064016101ee565b6000600a54826118099190612c1c565b60035460015460405163a9059cbb60e01b81526001600160a01b03918216600482015260248101849052929350169063a9059cbb906044016020604051808303816000875af1158015611860573d6000803e3d6000fd5b505050506040513d601f19601f820116820180604052508101906118849190612b88565b506001546040518281526001600160a01b03909116907fc7a4399aadffb826a14c0b12a3fce3c3b39304072a89404d117bb0c1cc2f681d9060200160405180910390a25050610c696001600055565b6118db61254b565b61191a84848080601f01602080910402602001604051908101604052809392919081815260200183838082843760009201919091525061257592505050565b61192357600080fd5b600061196485858080601f0160208091040260200160405190810160405280939291908181526020018383808284376000920191909152506125c392505050565b6000818152600f60205260409020600101549091506001600160a01b031633146119c75760405162461bcd60e51b81526020600482015260146024820152736e6f742062757965722c20636865636b206d643560601b60448201526064016101ee565b6000818152600f60205260409020600201548314611a195760405162461bcd60e51b815260206004820152600f60248201526e696e636f727265637420707269636560881b60448201526064016101ee565b81611b1357336000908152600b6020526040902054831115611a3a57600080fd5b82600a541015611a4957600080fd5b336000908152600b602052604081208054859290611a68908490612c1c565b9250508190555082600a6000828254611a819190612c1c565b90915550506003546000828152600f60205260409081902054905163a9059cbb60e01b81526001600160a01b03610100909204821660048201526024810186905291169063a9059cbb906044016020604051808303816000875af1158015611aed573d6000803e3d6000fd5b505050506040513d601f19601f82011682018060405250810190611b119190612b88565b505b8115611d0057600354604051636eb1769f60e11b815233600482015230602482015284916001600160a01b03169063dd62ed3e90604401602060405180830381865afa158015611b67573d6000803e3d6000fd5b505050506040513d601f19601f82011682018060405250810190611b8b9190612b49565b1015611bc85760405162461bcd60e51b815260206004820152600c60248201526b6e6f20616c6c6f77616e636560a01b60448201526064016101ee565b6003546040516370a0823160e01b815233600482015284916001600160a01b0316906370a0823190602401602060405180830381865afa158015611c10573d6000803e3d6000fd5b505050506040513d601f19601f82011682018060405250810190611c349190612b49565b1015611c6d5760405162461bcd60e51b81526020600482015260086024820152676e6f2066756e647360c01b60448201526064016101ee565b6003546000828152600f6020526040908190205490516323b872dd60e01b81523360048201526001600160a01b0361010090920482166024820152604481018690529116906323b872dd906064016020604051808303816000875af1158015611cda573d6000803e3d6000fd5b505050506040513d601f19601f82011682018060405250810190611cfe9190612b88565b505b6000818152600c602090815260408083208054610100600160a81b03191633610100810291909117909155600d83528184208054600181810183559186528486200180546001600160a01b03199081169093179055858552600f90935290832080546001600160a81b031916815591820180549091169055600281018290556003015560085460ff1615611eaf576004546001546001600160a01b03166000908152600b602052604090205410611eaf576003546004805460405163a9059cbb60e01b8152339281019290925260248201526001600160a01b039091169063a9059cbb906044016020604051808303816000875af1158015611e06573d6000803e3d6000fd5b505050506040513d601f19601f82011682018060405250810190611e2a9190612b88565b50600454600a6000828254611e3f9190612c1c565b90915550506004546001546001600160a01b03166000908152600b602052604081208054909190611e71908490612c1c565b909155505060045460405190815233907fc3fb6c98272d7a0d5dc26727b61c00ece2e5bf3dbdc0284659e28d441c1ce06c9060200160405180910390a25b8484604051611ebf929190612c2f565b604080519182900382206000848152600f60205291909120549091339161010090046001600160a01b0316907fca00f8032cdcf162c969609d82f6c8d2f473b3321c01f6323283abfa6abbdfbc90611f1a9088815260200190565b60405180910390a450611f2d6001600055565b50505050565b611f7282828080601f01602080910402602001604051908101604052809392919081815260200183838082843760009201919091525061257592505050565b611f7b57600080fd5b6000611fbc83838080601f0160208091040260200160405190810160405280939291908181526020018383808284376000920191909152506125c392505050565b6000818152600c602052604090205490915061010090046001600160a01b03163314611ffa5760405162461bcd60e51b81526004016101ee90612c56565b6007546000828152600f60205260409020600301546120199190612bbb565b42116120505760405162461bcd60e51b81526020600482015260066024820152651b1bd8dad95960d21b60448201526064016101ee565b6000818152600f602052604090205460ff166120ae5760405162461bcd60e51b815260206004820152601760248201527f596f7572206970206973206e6f7420666f722073616c6500000000000000000060448201526064016101ee565b6000818152600f602052604080822080546001600160a81b03191681556001810180546001600160a01b03191690556002810183905560030191909155516120f99084908490612c2f565b6040519081900381209033907f383d583d88dbf9c45d5233ccc727dbcd376ee162399a2b8f783e06233b1c10d490600090a3505050565b61213861254b565b336001600160a01b038316036121855760405162461bcd60e51b81526020600482015260126024820152713237b713ba1039b2b636103a379039b2b63360711b60448201526064016101ee565b6121c485858080601f01602080910402602001604051908101604052809392919081815260200183838082843760009201919091525061257592505050565b6121cd57600080fd5b600061220e86868080601f0160208091040260200160405190810160405280939291908181526020018383808284376000920191909152506125c392505050565b6000818152600f602052604090205490915060ff16156122635760405162461bcd60e51b815260206004820152601060248201526f616c726561647920666f722073616c6560801b60448201526064016101ee565b6000818152600c602052604090205461010090046001600160a01b0316331461229e5760405162461bcd60e51b81526004016101ee90612c56565b816122d457600654336000908152600b602052604090205410156122d45760405162461bcd60e51b81526004016101ee90612bfc565b81156123aa57600654600354604051636eb1769f60e11b81523360048201523060248201526001600160a01b039091169063dd62ed3e90604401602060405180830381865afa15801561232b573d6000803e3d6000fd5b505050506040513d601f19601f8201168201806040525081019061234f9190612b49565b101561236d5760405162461bcd60e51b81526004016101ee90612b62565b612379600654336125f3565b600654336000908152600b602052604090205410156123aa5760405162461bcd60e51b81526004016101ee90612bfc565b600654336000908152600b6020526040812080549091906123cc908490612c1c565b9091555050600654600980546000906123e6908490612bbb565b90915550506040805160a08101825260018082523360208084019182526001600160a01b03888116858701818152606087018c8152426080890190815260008b8152600f909652948990209751885496516001600160a81b0319909716901515610100600160a81b03191617610100968516969096029590951787555194860180546001600160a01b031916959092169490941790559051600284015551600390920191909155905161249c9088908890612c2f565b6040519081900381208682529033907f342e6f331ab235230bed289e0b8877ff9ee8a5ae695363dcd1a38a250d9085a29060200160405180910390a4506124e36001600055565b5050505050565b6001546001600160a01b031633148061250d57506002546001600160a01b031633145b6125295760405162461bcd60e51b81526004016101ee90612bce565b600180546001600160a01b0319166001600160a01b0392909216919091179055565b60026000540361256e57604051633ee5aeb560e01b815260040160405180910390fd5b6002600055565b80516000908290602081146125b95760405162461bcd60e51b815260206004820152600a60248201526936b21a9034b731b7b93960b11b60448201526064016101ee565b5060019392505050565b6000816040516020016125d69190612c79565b604051602081830303815290604052805190602001209050919050565b6003546040516370a0823160e01b81526001600160a01b038381166004830152849216906370a0823190602401602060405180830381865afa15801561263d573d6000803e3d6000fd5b505050506040513d601f19601f820116820180604052508101906126619190612b49565b101561269a5760405162461bcd60e51b81526020600482015260086024820152674e6f2066756e647360c01b60448201526064016101ee565b600354604051636eb1769f60e11b81526001600160a01b0383811660048301523060248301528492169063dd62ed3e90604401602060405180830381865afa1580156126ea573d6000803e3d6000fd5b505050506040513d601f19601f8201168201806040525081019061270e9190612b49565b101561272c5760405162461bcd60e51b81526004016101ee90612b62565b6003546040516323b872dd60e01b81526001600160a01b03838116600483015230602483015260448201859052909116906323b872dd906064016020604051808303816000875af1158015612785573d6000803e3d6000fd5b505050506040513d601f19601f820116820180604052508101906127a99190612b88565b506001600160a01b0381166000908152600b6020526040812080548492906127d2908490612bbb565b9250508190555081600a60008282546127eb9190612bbb565b9091555050604080516001600160a01b0383168152602081018490527fe2bb67d73b621509bdef99ec426140236b94a6e48610644e43aeecd18aae656a910160405180910390a15050565b6020808252604c908201527f46616c6c6261636b2066756e6374696f6e2064697361626c65642e205573652060408201527f6465706f736974282920666f72204574686572206f72206465706f736974495060608201526b2a1414903337b91024a82a1760a11b608082015260a00190565b6000602082840312156128ba57600080fd5b5035919050565b801515811461085e57600080fd5b6000602082840312156128e157600080fd5b81356128ec816128c1565b9392505050565b60008083601f84011261290557600080fd5b50813567ffffffffffffffff81111561291d57600080fd5b60208301915083602082850101111561293557600080fd5b9250929050565b60008060006040848603121561295157600080fd5b833567ffffffffffffffff81111561296857600080fd5b612974868287016128f3565b9094509250506020840135612988816128c1565b809150509250925092565b600080602083850312156129a657600080fd5b823567ffffffffffffffff8111156129bd57600080fd5b6129c9858286016128f3565b90969095509350505050565b600080604083850312156129e857600080fd5b50508035926020909101359150565b6020808252825182820181905260009190848201906040850190845b81811015612a385783516001600160a01b031683529284019291840191600101612a13565b50909695505050505050565b6001600160a01b038116811461085e57600080fd5b600060208284031215612a6b57600080fd5b81356128ec81612a44565b60008060008060608587031215612a8c57600080fd5b843567ffffffffffffffff811115612aa357600080fd5b612aaf878288016128f3565b909550935050602085013591506040850135612aca816128c1565b939692955090935050565b600080600080600060808688031215612aed57600080fd5b853567ffffffffffffffff811115612b0457600080fd5b612b10888289016128f3565b909650945050602086013592506040860135612b2b81612a44565b91506060860135612b3b816128c1565b809150509295509295909350565b600060208284031215612b5b57600080fd5b5051919050565b6020808252600c908201526b4e6f20616c6c6f77616e636560a01b604082015260600190565b600060208284031215612b9a57600080fd5b81516128ec816128c1565b634e487b7160e01b600052601160045260246000fd5b8082018082111561111357611113612ba5565b6020808252601490820152736f776e6572206f722068656c706572206f6e6c7960601b604082015260600190565b6020808252600690820152651b9bc812541560d21b604082015260600190565b8181038181111561111357611113612ba5565b8183823760009101908152919050565b808202811582820484141761111357611113612ba5565b6020808252600990820152683737ba1037bbb732b960b91b604082015260600190565b6000825160005b81811015612c9a5760208186018101518583015201612c80565b50600092019182525091905056fea26469706673582212200bcfdc6cce6d392496078feaca3c244bded409a2af6a84ec52b2904a6facba8064736f6c63430008140033",
  "linkReferences": {},
  "deployedLinkReferences": {}
}