{
  "_format": "hh-sol-artifact-1",
  "contractName": "IPToken",
  "sourceName": "contracts/1_IPToken.sol",
  "abi": [
    {
      "inputs": [
        {
          "internalType": "uint256",
          "name": "cap",
          "type": "uint256"
        },
        {
          "internalType": "uint256",
          "name": "reward",
          "type": "uint256"
        }
      ],
      "stateMutability": "nonpayable",
      "type": "constructor"
    },
    {
      "inputs": [
        {
          "internalType": "uint256",
          "name": "increasedSupply",
          "type": "uint256"
        },
        {
          "internalType": "uint256",
          "name": "cap",
          "type": "uint256"
        }
      ],
      "name": "ERC20ExceededCap",
      "type": "error"
    },
    {
      "inputs": [
        {
          "internalType": "address",
          "name": "spender",
          "type": "address"
        },
        {
          "internalType": "uint256",
          "name": "allowance",
          "type": "uint256"
        },
        {
          "internalType": "uint256",
          "name": "needed",
          "type": "uint256"
        }
      ],
      "name": "ERC20InsufficientAllowance",
      "type": "error"
    },
    {
      "inputs": [
        {
          "internalType": "address",
          "name": "sender",
          "type": "address"
        },
        {
          "internalType": "uint256",
          "name": "balance",
          "type": "uint256"
        },
        {
          "internalType": "uint256",
          "name": "needed",
          "type": "uint256"
        }
      ],
      "name": "ERC20InsufficientBalance",
      "type": "error"
    },
    {
      "inputs": [
        {
          "internalType": "address",
          "name": "approver",
          "type": "address"
        }
      ],
      "name": "ERC20InvalidApprover",
      "type": "error"
    },
    {
      "inputs": [
        {
          "internalType": "uint256",
          "name": "cap",
          "type": "uint256"
        }
      ],
      "name": "ERC20InvalidCap",
      "type": "error"
    },
    {
      "inputs": [
        {
          "internalType": "address",
          "name": "receiver",
          "type": "address"
        }
      ],
      "name": "ERC20InvalidReceiver",
      "type": "error"
    },
    {
      "inputs": [
        {
          "internalType": "address",
          "name": "sender",
          "type": "address"
        }
      ],
      "name": "ERC20InvalidSender",
      "type": "error"
    },
    {
      "inputs": [
        {
          "internalType": "address",
          "name": "spender",
          "type": "address"
        }
      ],
      "name": "ERC20InvalidSpender",
      "type": "error"
    },
    {
      "anonymous": false,
      "inputs": [
        {
          "indexed": true,
          "internalType": "address",
          "name": "owner",
          "type": "address"
        },
        {
          "indexed": true,
          "internalType": "address",
          "name": "spender",
          "type": "address"
        },
        {
          "indexed": false,
          "internalType": "uint256",
          "name": "value",
          "type": "uint256"
        }
      ],
      "name": "Approval",
      "type": "event"
    },
    {
      "anonymous": false,
      "inputs": [
        {
          "indexed": true,
          "internalType": "address",
          "name": "from",
          "type": "address"
        },
        {
          "indexed": true,
          "internalType": "address",
          "name": "to",
          "type": "address"
        },
        {
          "indexed": false,
          "internalType": "uint256",
          "name": "value",
          "type": "uint256"
        }
      ],
      "name": "Transfer",
      "type": "event"
    },
    {
      "inputs": [
        {
          "internalType": "address",
          "name": "owner",
          "type": "address"
        },
        {
          "internalType": "address",
          "name": "spender",
          "type": "address"
        }
      ],
      "name": "allowance",
      "outputs": [
        {
          "internalType": "uint256",
          "name": "",
          "type": "uint256"
        }
      ],
      "stateMutability": "view",
      "type": "function"
    },
    {
      "inputs": [
        {
          "internalType": "address",
          "name": "spender",
          "type": "address"
        },
        {
          "internalType": "uint256",
          "name": "value",
          "type": "uint256"
        }
      ],
      "name": "approve",
      "outputs": [
        {
          "internalType": "bool",
          "name": "",
          "type": "bool"
        }
      ],
      "stateMutability": "nonpayable",
      "type": "function"
    },
    {
      "inputs": [
        {
          "internalType": "address",
          "name": "approvedAddress",
          "type": "address"
        },
        {
          "internalType": "uint256",
          "name": "amount",
          "type": "uint256"
        }
      ],
      "name": "approveAmount",
      "outputs": [
        {
          "internalType": "bool",
          "name": "",
          "type": "bool"
        }
      ],
      "stateMutability": "nonpayable",
      "type": "function"
    },
    {
      "inputs": [
        {
          "internalType": "address",
          "name": "account",
          "type": "address"
        }
      ],
      "name": "balanceOf",
      "outputs": [
        {
          "internalType": "uint256",
          "name": "",
          "type": "uint256"
        }
      ],
      "stateMutability": "view",
      "type": "function"
    },
    {
      "inputs": [],
      "name": "blockReward",
      "outputs": [
        {
          "internalType": "uint256",
          "name": "",
          "type": "uint256"
        }
      ],
      "stateMutability": "view",
      "type": "function"
    },
    {
      "inputs": [
        {
          "internalType": "uint256",
          "name": "value",
          "type": "uint256"
        }
      ],
      "name": "burn",
      "outputs": [],
      "stateMutability": "nonpayable",
      "type": "function"
    },
    {
      "inputs": [
        {
          "internalType": "address",
          "name": "account",
          "type": "address"
        },
        {
          "internalType": "uint256",
          "name": "value",
          "type": "uint256"
        }
      ],
      "name": "burnFrom",
      "outputs": [],
      "stateMutability": "nonpayable",
      "type": "function"
    },
    {
      "inputs": [],
      "name": "cap",
      "outputs": [
        {
          "internalType": "uint256",
          "name": "",
          "type": "uint256"
        }
      ],
      "stateMutability": "view",
      "type": "function"
    },
    {
      "inputs": [],
      "name": "decimals",
      "outputs": [
        {
          "internalType": "uint8",
          "name": "",
          "type": "uint8"
        }
      ],
      "stateMutability": "view",
      "type": "function"
    },
    {
      "inputs": [],
      "name": "getBlockReward",
      "outputs": [
        {
          "internalType": "uint256",
          "name": "",
          "type": "uint256"
        }
      ],
      "stateMutability": "view",
      "type": "function"
    },
    {
      "inputs": [],
      "name": "name",
      "outputs": [
        {
          "internalType": "string",
          "name": "",
          "type": "string"
        }
      ],
      "stateMutability": "view",
      "type": "function"
    },
    {
      "inputs": [],
      "name": "owner",
      "outputs": [
        {
          "internalType": "address payable",
          "name": "",
          "type": "address"
        }
      ],
      "stateMutability": "view",
      "type": "function"
    },
    {
      "inputs": [
        {
          "internalType": "address",
          "name": "contractAddress",
          "type": "address"
        }
      ],
      "name": "readApprovalFor",
      "outputs": [
        {
          "internalType": "uint256",
          "name": "",
          "type": "uint256"
        }
      ],
      "stateMutability": "view",
      "type": "function"
    },
    {
      "inputs": [
        {
          "internalType": "address",
          "name": "approvedAddress",
          "type": "address"
        }
      ],
      "name": "revokeApproval",
      "outputs": [
        {
          "internalType": "bool",
          "name": "",
          "type": "bool"
        }
      ],
      "stateMutability": "nonpayable",
      "type": "function"
    },
    {
      "inputs": [
        {
          "internalType": "uint256",
          "name": "reward",
          "type": "uint256"
        }
      ],
      "name": "setBlockReward",
      "outputs": [],
      "stateMutability": "nonpayable",
      "type": "function"
    },
    {
      "inputs": [],
      "name": "symbol",
      "outputs": [
        {
          "internalType": "string",
          "name": "",
          "type": "string"
        }
      ],
      "stateMutability": "view",
      "type": "function"
    },
    {
      "inputs": [],
      "name": "totalSupply",
      "outputs": [
        {
          "internalType": "uint256",
          "name": "",
          "type": "uint256"
        }
      ],
      "stateMutability": "view",
      "type": "function"
    },
    {
      "inputs": [
        {
          "internalType": "address",
          "name": "to",
          "type": "address"
        },
        {
          "internalType": "uint256",
          "name": "value",
          "type": "uint256"
        }
      ],
      "name": "transfer",
      "outputs": [
        {
          "internalType": "bool",
          "name": "",
          "type": "bool"
        }
      ],
      "stateMutability": "nonpayable",
      "type": "function"
    },
    {
      "inputs": [
        {
          "internalType": "address",
          "name": "from",
          "type": "address"
        },
        {
          "internalType": "address",
          "name": "to",
          "type": "address"
        },
        {
          "internalType": "uint256",
          "name": "value",
          "type": "uint256"
        }
      ],
      "name": "transferFrom",
      "outputs": [
        {
          "internalType": "bool",
          "name": "",
          "type": "bool"
        }
      ],
      "stateMutability": "nonpayable",
      "type": "function"
    },
    {
      "stateMutability": "payable",
      "type": "receive"
    }
  ],
  "bytecode": "0x60a06040523480156200001157600080fd5b50604051620024a4380380620024a48339818101604052810190620000379190620006f6565b670de0b6b3a7640000826200004d91906200076c565b6040518060400160405280600781526020017f4950546f6b656e000000000000000000000000000000000000000000000000008152506040518060400160405280600381526020017f49505400000000000000000000000000000000000000000000000000000000008152508160039081620000ca919062000a27565b508060049081620000dc919062000a27565b50505060008103620001285760006040517f392e1e270000000000000000000000000000000000000000000000000000000081526004016200011f919062000b51565b60405180910390fd5b80608081815250505033600560006101000a81548173ffffffffffffffffffffffffffffffffffffffff021916908373ffffffffffffffffffffffffffffffffffffffff1602179055506200018f336a39e7139a8c08fa06000000620001b360201b60201c565b670de0b6b3a764000081620001a591906200076c565b600681905550505062000d26565b620001c36200023a60201b60201c565b81620001d46200024460201b60201c565b620001e0919062000b6e565b111562000224576040517f08c379a00000000000000000000000000000000000000000000000000000000081526004016200021b9062000c0a565b60405180910390fd5b6200023682826200024e60201b60201c565b5050565b6000608051905090565b6000600254905090565b600073ffffffffffffffffffffffffffffffffffffffff168273ffffffffffffffffffffffffffffffffffffffff1603620002c35760006040517fec442f05000000000000000000000000000000000000000000000000000000008152600401620002ba919062000c71565b60405180910390fd5b620002d760008383620002db60201b60201c565b5050565b600073ffffffffffffffffffffffffffffffffffffffff168373ffffffffffffffffffffffffffffffffffffffff16141580156200034557504173ffffffffffffffffffffffffffffffffffffffff168273ffffffffffffffffffffffffffffffffffffffff1614155b80156200037f5750600073ffffffffffffffffffffffffffffffffffffffff164173ffffffffffffffffffffffffffffffffffffffff1614155b15620003965762000395620003ae60201b60201c565b5b620003a9838383620003c460201b60201c565b505050565b620003c2416006546200024e60201b60201c565b565b620003d78383836200048660201b60201c565b600073ffffffffffffffffffffffffffffffffffffffff168373ffffffffffffffffffffffffffffffffffffffff1603620004815760006200041e6200023a60201b60201c565b90506000620004326200024460201b60201c565b9050818111156200047e5780826040517f9e79f8540000000000000000000000000000000000000000000000000000000081526004016200047592919062000c9f565b60405180910390fd5b50505b505050565b600073ffffffffffffffffffffffffffffffffffffffff168373ffffffffffffffffffffffffffffffffffffffff1603620004dc578060026000828254620004cf919062000b6e565b92505081905550620005b2565b60008060008573ffffffffffffffffffffffffffffffffffffffff1673ffffffffffffffffffffffffffffffffffffffff168152602001908152602001600020549050818110156200056b578381836040517fe450d38c000000000000000000000000000000000000000000000000000000008152600401620005629392919062000ccc565b60405180910390fd5b8181036000808673ffffffffffffffffffffffffffffffffffffffff1673ffffffffffffffffffffffffffffffffffffffff16815260200190815260200160002081905550505b600073ffffffffffffffffffffffffffffffffffffffff168273ffffffffffffffffffffffffffffffffffffffff1603620005fd57806002600082825403925050819055506200064a565b806000808473ffffffffffffffffffffffffffffffffffffffff1673ffffffffffffffffffffffffffffffffffffffff168152602001908152602001600020600082825401925050819055505b8173ffffffffffffffffffffffffffffffffffffffff168373ffffffffffffffffffffffffffffffffffffffff167fddf252ad1be2c89b69c2b068fc378daa952ba7f163c4a11628f55a4df523b3ef83604051620006a9919062000d09565b60405180910390a3505050565b600080fd5b6000819050919050565b620006d081620006bb565b8114620006dc57600080fd5b50565b600081519050620006f081620006c5565b92915050565b6000806040838503121562000710576200070f620006b6565b5b60006200072085828601620006df565b92505060206200073385828601620006df565b9150509250929050565b7f4e487b7100000000000000000000000000000000000000000000000000000000600052601160045260246000fd5b60006200077982620006bb565b91506200078683620006bb565b92508282026200079681620006bb565b91508282048414831517620007b057620007af6200073d565b5b5092915050565b600081519050919050565b7f4e487b7100000000000000000000000000000000000000000000000000000000600052604160045260246000fd5b7f4e487b7100000000000000000000000000000000000000000000000000000000600052602260045260246000fd5b600060028204905060018216806200083957607f821691505b6020821081036200084f576200084e620007f1565b5b50919050565b60008190508160005260206000209050919050565b60006020601f8301049050919050565b600082821b905092915050565b600060088302620008b97fffffffffffffffffffffffffffffffffffffffffffffffffffffffffffffffff826200087a565b620008c586836200087a565b95508019841693508086168417925050509392505050565b6000819050919050565b60006200090862000902620008fc84620006bb565b620008dd565b620006bb565b9050919050565b6000819050919050565b6200092483620008e7565b6200093c62000933826200090f565b84845462000887565b825550505050565b600090565b6200095362000944565b6200096081848462000919565b505050565b5b8181101562000988576200097c60008262000949565b60018101905062000966565b5050565b601f821115620009d757620009a18162000855565b620009ac846200086a565b81016020851015620009bc578190505b620009d4620009cb856200086a565b83018262000965565b50505b505050565b600082821c905092915050565b6000620009fc60001984600802620009dc565b1980831691505092915050565b600062000a178383620009e9565b9150826002028217905092915050565b62000a3282620007b7565b67ffffffffffffffff81111562000a4e5762000a4d620007c2565b5b62000a5a825462000820565b62000a678282856200098c565b600060209050601f83116001811462000a9f576000841562000a8a578287015190505b62000a96858262000a09565b86555062000b06565b601f19841662000aaf8662000855565b60005b8281101562000ad95784890151825560018201915060208501945060208101905062000ab2565b8683101562000af9578489015162000af5601f891682620009e9565b8355505b6001600288020188555050505b505050505050565b6000819050919050565b600062000b3962000b3362000b2d8462000b0e565b620008dd565b620006bb565b9050919050565b62000b4b8162000b18565b82525050565b600060208201905062000b68600083018462000b40565b92915050565b600062000b7b82620006bb565b915062000b8883620006bb565b925082820190508082111562000ba35762000ba26200073d565b5b92915050565b600082825260208201905092915050565b7f45524332304361707065643a2063617020657863656564656400000000000000600082015250565b600062000bf260198362000ba9565b915062000bff8262000bba565b602082019050919050565b6000602082019050818103600083015262000c258162000be3565b9050919050565b600073ffffffffffffffffffffffffffffffffffffffff82169050919050565b600062000c598262000c2c565b9050919050565b62000c6b8162000c4c565b82525050565b600060208201905062000c88600083018462000c60565b92915050565b62000c9981620006bb565b82525050565b600060408201905062000cb6600083018562000c8e565b62000cc5602083018462000c8e565b9392505050565b600060608201905062000ce3600083018662000c60565b62000cf2602083018562000c8e565b62000d01604083018462000c8e565b949350505050565b600060208201905062000d20600083018462000c8e565b92915050565b60805161176262000d4260003960006106c601526117626000f3fe6080604052600436106101185760003560e01c8063484685b0116100a0578063a188ed4511610064578063a188ed45146103f9578063a9059cbb14610436578063dd62ed3e14610473578063f89d4086146104b0578063ff8e1dad146104db57610158565b8063484685b01461030057806370a082311461033d57806379cc67901461037a5780638da5cb5b146103a357806395d89b41146103ce57610158565b80631a18e707116100e75780631a18e7071461021b57806323b872dd14610244578063313ce56714610281578063355274ea146102ac57806342966c68146102d757610158565b806306fdde031461015d578063095ea7b3146101885780630ac168a1146101c557806318160ddd146101f057610158565b36610158576040517f08c379a000000000000000000000000000000000000000000000000000000000815260040161014f906111b1565b60405180910390fd5b600080fd5b34801561016957600080fd5b50610172610518565b60405161017f9190611250565b60405180910390f35b34801561019457600080fd5b506101af60048036038101906101aa919061130b565b6105aa565b6040516101bc9190611366565b60405180910390f35b3480156101d157600080fd5b506101da6105cd565b6040516101e79190611390565b60405180910390f35b3480156101fc57600080fd5b506102056105d3565b6040516102129190611390565b60405180910390f35b34801561022757600080fd5b50610242600480360381019061023d91906113ab565b6105dd565b005b34801561025057600080fd5b5061026b600480360381019061026691906113d8565b61068a565b6040516102789190611366565b60405180910390f35b34801561028d57600080fd5b506102966106b9565b6040516102a39190611447565b60405180910390f35b3480156102b857600080fd5b506102c16106c2565b6040516102ce9190611390565b60405180910390f35b3480156102e357600080fd5b506102fe60048036038101906102f991906113ab565b6106ea565b005b34801561030c57600080fd5b5061032760048036038101906103229190611462565b6106fe565b6040516103349190611366565b60405180910390f35b34801561034957600080fd5b50610364600480360381019061035f9190611462565b610715565b6040516103719190611390565b60405180910390f35b34801561038657600080fd5b506103a1600480360381019061039c919061130b565b61075d565b005b3480156103af57600080fd5b506103b861077d565b6040516103c591906114b0565b60405180910390f35b3480156103da57600080fd5b506103e36107a3565b6040516103f09190611250565b60405180910390f35b34801561040557600080fd5b50610420600480360381019061041b919061130b565b610835565b60405161042d9190611366565b60405180910390f35b34801561044257600080fd5b5061045d6004803603810190610458919061130b565b61084c565b60405161046a9190611366565b60405180910390f35b34801561047f57600080fd5b5061049a600480360381019061049591906114cb565b61086f565b6040516104a79190611390565b60405180910390f35b3480156104bc57600080fd5b506104c56108f6565b6040516104d29190611390565b60405180910390f35b3480156104e757600080fd5b5061050260048036038101906104fd9190611462565b610900565b60405161050f9190611390565b60405180910390f35b6060600380546105279061153a565b80601f01602080910402602001604051908101604052809291908181526020018280546105539061153a565b80156105a05780601f10610575576101008083540402835291602001916105a0565b820191906000526020600020905b81548152906001019060200180831161058357829003601f168201915b5050505050905090565b6000806105b5610918565b90506105c2818585610920565b600191505092915050565b60065481565b6000600254905090565b600560009054906101000a900473ffffffffffffffffffffffffffffffffffffffff1673ffffffffffffffffffffffffffffffffffffffff163373ffffffffffffffffffffffffffffffffffffffff161461066d576040517f08c379a0000000000000000000000000000000000000000000000000000000008152600401610664906115dd565b60405180910390fd5b670de0b6b3a764000081610681919061162c565b60068190555050565b600080610695610918565b90506106a2858285610932565b6106ad8585856109c6565b60019150509392505050565b60006012905090565b60007f0000000000000000000000000000000000000000000000000000000000000000905090565b6106fb6106f5610918565b82610aba565b50565b600061070b8260006105aa565b5060019050919050565b60008060008373ffffffffffffffffffffffffffffffffffffffff1673ffffffffffffffffffffffffffffffffffffffff168152602001908152602001600020549050919050565b61076f82610769610918565b83610932565b6107798282610aba565b5050565b600560009054906101000a900473ffffffffffffffffffffffffffffffffffffffff1681565b6060600480546107b29061153a565b80601f01602080910402602001604051908101604052809291908181526020018280546107de9061153a565b801561082b5780601f106108005761010080835404028352916020019161082b565b820191906000526020600020905b81548152906001019060200180831161080e57829003601f168201915b5050505050905090565b600061084183836105aa565b506001905092915050565b600080610857610918565b90506108648185856109c6565b600191505092915050565b6000600160008473ffffffffffffffffffffffffffffffffffffffff1673ffffffffffffffffffffffffffffffffffffffff16815260200190815260200160002060008373ffffffffffffffffffffffffffffffffffffffff1673ffffffffffffffffffffffffffffffffffffffff16815260200190815260200160002054905092915050565b6000600654905090565b60008061090d338461086f565b905080915050919050565b600033905090565b61092d8383836001610b3c565b505050565b600061093e848461086f565b90507fffffffffffffffffffffffffffffffffffffffffffffffffffffffffffffffff81146109c057818110156109b0578281836040517ffb8f41b20000000000000000000000000000000000000000000000000000000081526004016109a79392919061167d565b60405180910390fd5b6109bf84848484036000610b3c565b5b50505050565b600073ffffffffffffffffffffffffffffffffffffffff168373ffffffffffffffffffffffffffffffffffffffff1603610a385760006040517f96c6fd1e000000000000000000000000000000000000000000000000000000008152600401610a2f91906116b4565b60405180910390fd5b600073ffffffffffffffffffffffffffffffffffffffff168273ffffffffffffffffffffffffffffffffffffffff1603610aaa5760006040517fec442f05000000000000000000000000000000000000000000000000000000008152600401610aa191906116b4565b60405180910390fd5b610ab5838383610d13565b505050565b600073ffffffffffffffffffffffffffffffffffffffff168273ffffffffffffffffffffffffffffffffffffffff1603610b2c5760006040517f96c6fd1e000000000000000000000000000000000000000000000000000000008152600401610b2391906116b4565b60405180910390fd5b610b3882600083610d13565b5050565b600073ffffffffffffffffffffffffffffffffffffffff168473ffffffffffffffffffffffffffffffffffffffff1603610bae5760006040517fe602df05000000000000000000000000000000000000000000000000000000008152600401610ba591906116b4565b60405180910390fd5b600073ffffffffffffffffffffffffffffffffffffffff168373ffffffffffffffffffffffffffffffffffffffff1603610c205760006040517f94280d62000000000000000000000000000000000000000000000000000000008152600401610c1791906116b4565b60405180910390fd5b81600160008673ffffffffffffffffffffffffffffffffffffffff1673ffffffffffffffffffffffffffffffffffffffff16815260200190815260200160002060008573ffffffffffffffffffffffffffffffffffffffff1673ffffffffffffffffffffffffffffffffffffffff168152602001908152602001600020819055508015610d0d578273ffffffffffffffffffffffffffffffffffffffff168473ffffffffffffffffffffffffffffffffffffffff167f8c5be1e5ebec7d5bd14f71427d1e84f3dd0314c0f7b2291e5b200ac8c7c3b92584604051610d049190611390565b60405180910390a35b50505050565b600073ffffffffffffffffffffffffffffffffffffffff168373ffffffffffffffffffffffffffffffffffffffff1614158015610d7c57504173ffffffffffffffffffffffffffffffffffffffff168273ffffffffffffffffffffffffffffffffffffffff1614155b8015610db55750600073ffffffffffffffffffffffffffffffffffffffff164173ffffffffffffffffffffffffffffffffffffffff1614155b15610dc357610dc2610dd3565b5b610dce838383610de1565b505050565b610ddf41600654610e87565b565b610dec838383610f09565b600073ffffffffffffffffffffffffffffffffffffffff168373ffffffffffffffffffffffffffffffffffffffff1603610e82576000610e2a6106c2565b90506000610e366105d3565b905081811115610e7f5780826040517f9e79f854000000000000000000000000000000000000000000000000000000008152600401610e769291906116cf565b60405180910390fd5b50505b505050565b600073ffffffffffffffffffffffffffffffffffffffff168273ffffffffffffffffffffffffffffffffffffffff1603610ef95760006040517fec442f05000000000000000000000000000000000000000000000000000000008152600401610ef091906116b4565b60405180910390fd5b610f0560008383610d13565b5050565b600073ffffffffffffffffffffffffffffffffffffffff168373ffffffffffffffffffffffffffffffffffffffff1603610f5b578060026000828254610f4f91906116f8565b9250508190555061102e565b60008060008573ffffffffffffffffffffffffffffffffffffffff1673ffffffffffffffffffffffffffffffffffffffff16815260200190815260200160002054905081811015610fe7578381836040517fe450d38c000000000000000000000000000000000000000000000000000000008152600401610fde9392919061167d565b60405180910390fd5b8181036000808673ffffffffffffffffffffffffffffffffffffffff1673ffffffffffffffffffffffffffffffffffffffff16815260200190815260200160002081905550505b600073ffffffffffffffffffffffffffffffffffffffff168273ffffffffffffffffffffffffffffffffffffffff160361107757806002600082825403925050819055506110c4565b806000808473ffffffffffffffffffffffffffffffffffffffff1673ffffffffffffffffffffffffffffffffffffffff168152602001908152602001600020600082825401925050819055505b8173ffffffffffffffffffffffffffffffffffffffff168373ffffffffffffffffffffffffffffffffffffffff167fddf252ad1be2c89b69c2b068fc378daa952ba7f163c4a11628f55a4df523b3ef836040516111219190611390565b60405180910390a3505050565b600082825260208201905092915050565b7f53656e64696e6720657468657220746f207468697320636f6e7472616374206960008201527f73206e6f7420616c6c6f77656400000000000000000000000000000000000000602082015250565b600061119b602d8361112e565b91506111a68261113f565b604082019050919050565b600060208201905081810360008301526111ca8161118e565b9050919050565b600081519050919050565b60005b838110156111fa5780820151818401526020810190506111df565b60008484015250505050565b6000601f19601f8301169050919050565b6000611222826111d1565b61122c818561112e565b935061123c8185602086016111dc565b61124581611206565b840191505092915050565b6000602082019050818103600083015261126a8184611217565b905092915050565b600080fd5b600073ffffffffffffffffffffffffffffffffffffffff82169050919050565b60006112a282611277565b9050919050565b6112b281611297565b81146112bd57600080fd5b50565b6000813590506112cf816112a9565b92915050565b6000819050919050565b6112e8816112d5565b81146112f357600080fd5b50565b600081359050611305816112df565b92915050565b6000806040838503121561132257611321611272565b5b6000611330858286016112c0565b9250506020611341858286016112f6565b9150509250929050565b60008115159050919050565b6113608161134b565b82525050565b600060208201905061137b6000830184611357565b92915050565b61138a816112d5565b82525050565b60006020820190506113a56000830184611381565b92915050565b6000602082840312156113c1576113c0611272565b5b60006113cf848285016112f6565b91505092915050565b6000806000606084860312156113f1576113f0611272565b5b60006113ff868287016112c0565b9350506020611410868287016112c0565b9250506040611421868287016112f6565b9150509250925092565b600060ff82169050919050565b6114418161142b565b82525050565b600060208201905061145c6000830184611438565b92915050565b60006020828403121561147857611477611272565b5b6000611486848285016112c0565b91505092915050565b600061149a82611277565b9050919050565b6114aa8161148f565b82525050565b60006020820190506114c560008301846114a1565b92915050565b600080604083850312156114e2576114e1611272565b5b60006114f0858286016112c0565b9250506020611501858286016112c0565b9150509250929050565b7f4e487b7100000000000000000000000000000000000000000000000000000000600052602260045260246000fd5b6000600282049050600182168061155257607f821691505b6020821081036115655761156461150b565b5b50919050565b7f4f6e6c7920746865206f776e65722063616e2063616c6c20746869732066756e60008201527f6374696f6e000000000000000000000000000000000000000000000000000000602082015250565b60006115c760258361112e565b91506115d28261156b565b604082019050919050565b600060208201905081810360008301526115f6816115ba565b9050919050565b7f4e487b7100000000000000000000000000000000000000000000000000000000600052601160045260246000fd5b6000611637826112d5565b9150611642836112d5565b9250828202611650816112d5565b91508282048414831517611667576116666115fd565b5b5092915050565b61167781611297565b82525050565b6000606082019050611692600083018661166e565b61169f6020830185611381565b6116ac6040830184611381565b949350505050565b60006020820190506116c9600083018461166e565b92915050565b60006040820190506116e46000830185611381565b6116f16020830184611381565b9392505050565b6000611703826112d5565b915061170e836112d5565b9250828201905080821115611726576117256115fd565b5b9291505056fea26469706673582212203517814e19502e6be2faef542cd4c9f779f4db3c24a074898c0fa74c704e9db964736f6c63430008140033",
  "linkReferences": {},
  "deployedLinkReferences": {}
}