{
  "_format": "hh-sol-artifact-1",
  "contractName": "IPtrade",
  "sourceName": "contracts/2_IPmanagement.sol",
  "abi": [
    {
      "inputs": [
        {
          "internalType": "address",
          "name": "tokenAddress",
          "type": "address"
        }
      ],
      "stateMutability": "payable",
      "type": "constructor"
    },
    {
      "anonymous": false,
      "inputs": [
        {
          "indexed": true,
          "internalType": "address",
          "name": "from",
          "type": "address"
        },
        {
          "indexed": true,
          "internalType": "uint256",
          "name": "amount",
          "type": "uint256"
        }
      ],
      "name": "Deposit",
      "type": "event"
    },
    {
      "anonymous": false,
      "inputs": [
        {
          "indexed": true,
          "internalType": "address",
          "name": "to",
          "type": "address"
        },
        {
          "indexed": true,
          "internalType": "uint256",
          "name": "amount",
          "type": "uint256"
        }
      ],
      "name": "Withdrawal",
      "type": "event"
    },
    {
      "inputs": [
        {
          "internalType": "uint256",
          "name": "salesPrice",
          "type": "uint256"
        },
        {
          "internalType": "string",
          "name": "str",
          "type": "string"
        },
        {
          "internalType": "bool",
          "name": "onApproval",
          "type": "bool"
        },
        {
          "internalType": "bool",
          "name": "isEther",
          "type": "bool"
        }
      ],
      "name": "buyerBuysIP",
      "outputs": [],
      "stateMutability": "nonpayable",
      "type": "function"
    },
    {
      "inputs": [
        {
          "internalType": "string",
          "name": "str",
          "type": "string"
        }
      ],
      "name": "checkMd5Length",
      "outputs": [
        {
          "internalType": "bool",
          "name": "",
          "type": "bool"
        }
      ],
      "stateMutability": "pure",
      "type": "function"
    },
    {
      "inputs": [
        {
          "internalType": "uint256",
          "name": "amount",
          "type": "uint256"
        },
        {
          "internalType": "address",
          "name": "selfAddress",
          "type": "address"
        }
      ],
      "name": "contractReceivesCredit",
      "outputs": [],
      "stateMutability": "payable",
      "type": "function"
    },
    {
      "inputs": [],
      "name": "deposit",
      "outputs": [],
      "stateMutability": "payable",
      "type": "function"
    },
    {
      "inputs": [],
      "name": "getEthRegistrationPrice",
      "outputs": [
        {
          "internalType": "uint256",
          "name": "",
          "type": "uint256"
        }
      ],
      "stateMutability": "view",
      "type": "function"
    },
    {
      "inputs": [],
      "name": "getEthTransferPrice",
      "outputs": [
        {
          "internalType": "uint256",
          "name": "",
          "type": "uint256"
        }
      ],
      "stateMutability": "view",
      "type": "function"
    },
    {
      "inputs": [],
      "name": "getEtherCredit",
      "outputs": [
        {
          "internalType": "uint256",
          "name": "",
          "type": "uint256"
        }
      ],
      "stateMutability": "view",
      "type": "function"
    },
    {
      "inputs": [],
      "name": "getEthersInContract",
      "outputs": [
        {
          "internalType": "uint256",
          "name": "",
          "type": "uint256"
        }
      ],
      "stateMutability": "view",
      "type": "function"
    },
    {
      "inputs": [],
      "name": "getFreetokensBool",
      "outputs": [
        {
          "internalType": "bool",
          "name": "",
          "type": "bool"
        }
      ],
      "stateMutability": "view",
      "type": "function"
    },
    {
      "inputs": [
        {
          "internalType": "string",
          "name": "str",
          "type": "string"
        }
      ],
      "name": "getIP",
      "outputs": [
        {
          "components": [
            {
              "internalType": "address",
              "name": "owner",
              "type": "address"
            },
            {
              "internalType": "uint256",
              "name": "creationTimeStamp",
              "type": "uint256"
            },
            {
              "internalType": "bool",
              "name": "exists",
              "type": "bool"
            }
          ],
          "internalType": "struct IPtrade.IPowner",
          "name": "",
          "type": "tuple"
        }
      ],
      "stateMutability": "view",
      "type": "function"
    },
    {
      "inputs": [
        {
          "internalType": "string",
          "name": "str",
          "type": "string"
        }
      ],
      "name": "getIpTransactions",
      "outputs": [
        {
          "internalType": "address[]",
          "name": "",
          "type": "address[]"
        }
      ],
      "stateMutability": "view",
      "type": "function"
    },
    {
      "inputs": [],
      "name": "getIptBalance",
      "outputs": [
        {
          "internalType": "uint256",
          "name": "",
          "type": "uint256"
        }
      ],
      "stateMutability": "view",
      "type": "function"
    },
    {
      "inputs": [],
      "name": "getIptInContract",
      "outputs": [
        {
          "internalType": "uint256",
          "name": "",
          "type": "uint256"
        }
      ],
      "stateMutability": "view",
      "type": "function"
    },
    {
      "inputs": [],
      "name": "getIptRegistrationPrice",
      "outputs": [
        {
          "internalType": "uint256",
          "name": "",
          "type": "uint256"
        }
      ],
      "stateMutability": "view",
      "type": "function"
    },
    {
      "inputs": [],
      "name": "getIptTransferPrice",
      "outputs": [
        {
          "internalType": "uint256",
          "name": "",
          "type": "uint256"
        }
      ],
      "stateMutability": "view",
      "type": "function"
    },
    {
      "inputs": [],
      "name": "getLockTime",
      "outputs": [
        {
          "internalType": "uint256",
          "name": "",
          "type": "uint256"
        }
      ],
      "stateMutability": "view",
      "type": "function"
    },
    {
      "inputs": [
        {
          "internalType": "string",
          "name": "str",
          "type": "string"
        }
      ],
      "name": "getSalesIntent",
      "outputs": [
        {
          "components": [
            {
              "internalType": "address",
              "name": "owner_address",
              "type": "address"
            },
            {
              "internalType": "address",
              "name": "buyer_address",
              "type": "address"
            },
            {
              "internalType": "bool",
              "name": "isEther",
              "type": "bool"
            },
            {
              "internalType": "uint256",
              "name": "salesPrice",
              "type": "uint256"
            },
            {
              "internalType": "uint256",
              "name": "creationTimeStamp",
              "type": "uint256"
            },
            {
              "internalType": "bool",
              "name": "exists",
              "type": "bool"
            }
          ],
          "internalType": "struct IPtrade.Onsale",
          "name": "",
          "type": "tuple"
        }
      ],
      "stateMutability": "view",
      "type": "function"
    },
    {
      "inputs": [],
      "name": "getSpentEthOdometer",
      "outputs": [
        {
          "internalType": "uint256",
          "name": "",
          "type": "uint256"
        }
      ],
      "stateMutability": "view",
      "type": "function"
    },
    {
      "inputs": [],
      "name": "getSpentEthTotal",
      "outputs": [
        {
          "internalType": "uint256",
          "name": "",
          "type": "uint256"
        }
      ],
      "stateMutability": "view",
      "type": "function"
    },
    {
      "inputs": [],
      "name": "getSpentIptOdometer",
      "outputs": [
        {
          "internalType": "uint256",
          "name": "",
          "type": "uint256"
        }
      ],
      "stateMutability": "view",
      "type": "function"
    },
    {
      "inputs": [],
      "name": "getSpentIptTotal",
      "outputs": [
        {
          "internalType": "uint256",
          "name": "",
          "type": "uint256"
        }
      ],
      "stateMutability": "view",
      "type": "function"
    },
    {
      "inputs": [],
      "name": "getWithdrawalAmount",
      "outputs": [
        {
          "internalType": "uint256",
          "name": "",
          "type": "uint256"
        }
      ],
      "stateMutability": "view",
      "type": "function"
    },
    {
      "inputs": [],
      "name": "initialTime",
      "outputs": [
        {
          "internalType": "uint256",
          "name": "",
          "type": "uint256"
        }
      ],
      "stateMutability": "view",
      "type": "function"
    },
    {
      "inputs": [],
      "name": "owner",
      "outputs": [
        {
          "internalType": "address payable",
          "name": "",
          "type": "address"
        }
      ],
      "stateMutability": "view",
      "type": "function"
    },
    {
      "inputs": [],
      "name": "requestTokens",
      "outputs": [],
      "stateMutability": "nonpayable",
      "type": "function"
    },
    {
      "inputs": [
        {
          "internalType": "string",
          "name": "str",
          "type": "string"
        }
      ],
      "name": "sellerCancelsSalesIntent",
      "outputs": [],
      "stateMutability": "nonpayable",
      "type": "function"
    },
    {
      "inputs": [
        {
          "internalType": "string",
          "name": "str",
          "type": "string"
        },
        {
          "internalType": "uint256",
          "name": "salesPrice",
          "type": "uint256"
        },
        {
          "internalType": "address",
          "name": "buyerAddress",
          "type": "address"
        },
        {
          "internalType": "bool",
          "name": "onApproval",
          "type": "bool"
        },
        {
          "internalType": "bool",
          "name": "isEther",
          "type": "bool"
        }
      ],
      "name": "sellerCreatesSalesIntent",
      "outputs": [],
      "stateMutability": "nonpayable",
      "type": "function"
    },
    {
      "inputs": [
        {
          "internalType": "uint256",
          "name": "amount",
          "type": "uint256"
        }
      ],
      "name": "setEthRegistrationPrice",
      "outputs": [],
      "stateMutability": "nonpayable",
      "type": "function"
    },
    {
      "inputs": [
        {
          "internalType": "uint256",
          "name": "amount",
          "type": "uint256"
        }
      ],
      "name": "setEthTransferPrice",
      "outputs": [],
      "stateMutability": "nonpayable",
      "type": "function"
    },
    {
      "inputs": [
        {
          "internalType": "bool",
          "name": "provide",
          "type": "bool"
        }
      ],
      "name": "setFreetokensBool",
      "outputs": [],
      "stateMutability": "nonpayable",
      "type": "function"
    },
    {
      "inputs": [
        {
          "internalType": "string",
          "name": "str",
          "type": "string"
        },
        {
          "internalType": "bool",
          "name": "onApproval",
          "type": "bool"
        },
        {
          "internalType": "bool",
          "name": "isEther",
          "type": "bool"
        }
      ],
      "name": "setIP",
      "outputs": [],
      "stateMutability": "nonpayable",
      "type": "function"
    },
    {
      "inputs": [
        {
          "internalType": "uint256",
          "name": "amount",
          "type": "uint256"
        }
      ],
      "name": "setIptRegistrationPrice",
      "outputs": [],
      "stateMutability": "nonpayable",
      "type": "function"
    },
    {
      "inputs": [
        {
          "internalType": "uint256",
          "name": "amount",
          "type": "uint256"
        }
      ],
      "name": "setIptTransferPrice",
      "outputs": [],
      "stateMutability": "nonpayable",
      "type": "function"
    },
    {
      "inputs": [
        {
          "internalType": "uint256",
          "name": "amount",
          "type": "uint256"
        }
      ],
      "name": "setLockTime",
      "outputs": [],
      "stateMutability": "nonpayable",
      "type": "function"
    },
    {
      "inputs": [
        {
          "internalType": "uint256",
          "name": "amount",
          "type": "uint256"
        }
      ],
      "name": "setWithdrawalAmount",
      "outputs": [],
      "stateMutability": "nonpayable",
      "type": "function"
    },
    {
      "inputs": [
        {
          "internalType": "string",
          "name": "str",
          "type": "string"
        }
      ],
      "name": "stringToBytes32",
      "outputs": [
        {
          "internalType": "bytes32",
          "name": "",
          "type": "bytes32"
        }
      ],
      "stateMutability": "pure",
      "type": "function"
    },
    {
      "inputs": [],
      "name": "token",
      "outputs": [
        {
          "internalType": "contract IERC20",
          "name": "",
          "type": "address"
        }
      ],
      "stateMutability": "view",
      "type": "function"
    },
    {
      "inputs": [],
      "name": "userAllEtherWithdrawal",
      "outputs": [],
      "stateMutability": "payable",
      "type": "function"
    },
    {
      "inputs": [],
      "name": "userAllIptWithdrawal",
      "outputs": [],
      "stateMutability": "nonpayable",
      "type": "function"
    },
    {
      "inputs": [
        {
          "internalType": "uint256",
          "name": "amount",
          "type": "uint256"
        }
      ],
      "name": "userSomeEtherWithdrawal",
      "outputs": [],
      "stateMutability": "payable",
      "type": "function"
    },
    {
      "inputs": [
        {
          "internalType": "uint256",
          "name": "amount",
          "type": "uint256"
        }
      ],
      "name": "userSomeIptWithdrawal",
      "outputs": [],
      "stateMutability": "nonpayable",
      "type": "function"
    },
    {
      "inputs": [],
      "name": "withdrawSpentEth",
      "outputs": [],
      "stateMutability": "nonpayable",
      "type": "function"
    },
    {
      "inputs": [],
      "name": "withdrawSpentIpt",
      "outputs": [],
      "stateMutability": "nonpayable",
      "type": "function"
    },
    {
      "stateMutability": "payable",
      "type": "receive"
    }
  ],
  "bytecode": "0x6080604052670de0b6b3a7640000600355670de0b6b3a7640000600455671bc16d674ec8000060055566038d7ea4c6800060065566071afd498d000060075562093a806008556001600960006101000a81548160ff0219169083151502179055506000600960016101000a81548160ff0219169083151502179055506000600a556000600b556000600c556000600d556000600e556000600f5560405162005e4438038062005e448339818101604052810190620000be9190620001b0565b80600160006101000a81548173ffffffffffffffffffffffffffffffffffffffff021916908373ffffffffffffffffffffffffffffffffffffffff160217905550336000806101000a81548173ffffffffffffffffffffffffffffffffffffffff021916908373ffffffffffffffffffffffffffffffffffffffff16021790555050620001e2565b600080fd5b600073ffffffffffffffffffffffffffffffffffffffff82169050919050565b600062000178826200014b565b9050919050565b6200018a816200016b565b81146200019657600080fd5b50565b600081519050620001aa816200017f565b92915050565b600060208284031215620001c957620001c862000146565b5b6000620001d98482850162000199565b91505092915050565b615c5280620001f26000396000f3fe6080604052600436106102605760003560e01c80638b5c01cd11610144578063cea18a5b116100b6578063d39759971161007a578063d39759971461092e578063dbd27a1e14610959578063e2925cba14610984578063f0581cea146109ad578063f18b035d146109d8578063fc0c546a14610a015761035c565b8063cea18a5b1461087c578063cfa07f1e146108a5578063cfb51928146108d0578063d0a4f6021461090d578063d0e30db0146109245761035c565b80639e57a28d116101085780639e57a28d1461076c578063a65979fd146107a9578063ae04d45d146107d4578063c0a4d64d146107fd578063c929e1df14610828578063cbf8dc46146108515761035c565b80638b5c01cd146106995780638da5cb5b146106d657806394dffd8014610701578063954d0b86146107185780639ced0e9b146107415761035c565b80634b85f1e7116101dd57806365400d73116101a157806365400d731461059857806366bdd55a146105c357806368d4de36146105cd5780636ad4b9401461060a578063723b75e5146106335780637cf1665f1461065c5761035c565b80634b85f1e7146104d257806351c78586146104ee5780635568dc2e1461051757806357efc894146105425780635f503e291461056d5761035c565b80632a1dae13116102245780632a1dae13146104205780632c35692e1461044b57806332457df414610474578063359cf2b714610490578063485be5f6146104a75761035c565b80630438586a14610361578063066116961461038a57806308fc93ea146103b5578063168ee33a146103e0578063170d3074146104095761035c565b3661035c57600034116102a8576040517f08c379a000000000000000000000000000000000000000000000000000000000815260040161029f9061467f565b60405180910390fd5b343373ffffffffffffffffffffffffffffffffffffffff167fe1fffcc4923d04b559f4d29a8bfc6cda04eb5b0d3c460751c2402c5c5cc9109c60405160405180910390a334601160003373ffffffffffffffffffffffffffffffffffffffff1673ffffffffffffffffffffffffffffffffffffffff168152602001908152602001600020600082825461033b91906146d8565b9250508190555034600c600082825461035491906146d8565b925050819055005b600080fd5b34801561036d57600080fd5b506103886004803603810190610383919061474c565b610a2c565b005b34801561039657600080fd5b5061039f610ac4565b6040516103ac9190614788565b60405180910390f35b3480156103c157600080fd5b506103ca610b5d565b6040516103d79190614788565b60405180910390f35b3480156103ec57600080fd5b506104076004803603810190610402919061474c565b610b67565b005b34801561041557600080fd5b5061041e610bff565b005b34801561042c57600080fd5b50610435610dc7565b60405161044291906147be565b60405180910390f35b34801561045757600080fd5b50610472600480360381019061046d9190614805565b610e6d565b005b61048e60048036038101906104899190614890565b610f18565b005b34801561049c57600080fd5b506104a56111ec565b005b3480156104b357600080fd5b506104bc611509565b6040516104c99190614788565b60405180910390f35b6104ec60048036038101906104e7919061474c565b6115a2565b005b3480156104fa57600080fd5b506105156004803603810190610510919061474c565b6116dd565b005b34801561052357600080fd5b5061052c611775565b6040516105399190614788565b60405180910390f35b34801561054e57600080fd5b5061055761180e565b6040516105649190614788565b60405180910390f35b34801561057957600080fd5b50610582611855565b60405161058f9190614788565b60405180910390f35b3480156105a457600080fd5b506105ad61185f565b6040516105ba9190614788565b60405180910390f35b6105cb6118a6565b005b3480156105d957600080fd5b506105f460048036038101906105ef9190614935565b611a14565b6040516106019190614a2a565b60405180910390f35b34801561061657600080fd5b50610631600480360381019061062c919061474c565b611c07565b005b34801561063f57600080fd5b5061065a6004803603810190610655919061474c565b611d9c565b005b34801561066857600080fd5b50610683600480360381019061067e9190614935565b611e34565b6040516106909190614af4565b60405180910390f35b3480156106a557600080fd5b506106c060048036038101906106bb9190614935565b611f7e565b6040516106cd9190614b58565b60405180910390f35b3480156106e257600080fd5b506106eb6120d8565b6040516106f89190614b94565b60405180910390f35b34801561070d57600080fd5b506107166120fc565b005b34801561072457600080fd5b5061073f600480360381019061073a9190614baf565b6122b7565b005b34801561074d57600080fd5b5061075661281e565b6040516107639190614788565b60405180910390f35b34801561077857600080fd5b50610793600480360381019061078e9190614d64565b612824565b6040516107a091906147be565b60405180910390f35b3480156107b557600080fd5b506107be61287e565b6040516107cb9190614788565b60405180910390f35b3480156107e057600080fd5b506107fb60048036038101906107f6919061474c565b612888565b005b34801561080957600080fd5b5061081261292c565b60405161081f9190614788565b60405180910390f35b34801561083457600080fd5b5061084f600480360381019061084a9190614dad565b6129c5565b005b34801561085d57600080fd5b50610866613543565b6040516108739190614788565b60405180910390f35b34801561088857600080fd5b506108a3600480360381019061089e9190614e35565b6135dc565b005b3480156108b157600080fd5b506108ba613d73565b6040516108c79190614788565b60405180910390f35b3480156108dc57600080fd5b506108f760048036038101906108f29190614d64565b613d7d565b6040516109049190614ee8565b60405180910390f35b34801561091957600080fd5b50610922613dad565b005b61092c613f74565b005b34801561093a57600080fd5b50610943614028565b6040516109509190614788565b60405180910390f35b34801561096557600080fd5b5061096e6140c1565b60405161097b9190614788565b60405180910390f35b34801561099057600080fd5b506109ab60048036038101906109a69190614935565b6140cb565b005b3480156109b957600080fd5b506109c261442c565b6040516109cf9190614788565b60405180910390f35b3480156109e457600080fd5b506109ff60048036038101906109fa919061474c565b6144c5565b005b348015610a0d57600080fd5b50610a1661455d565b604051610a239190614f62565b60405180910390f35b60008054906101000a900473ffffffffffffffffffffffffffffffffffffffff1673ffffffffffffffffffffffffffffffffffffffff163373ffffffffffffffffffffffffffffffffffffffff1614610aba576040517f08c379a0000000000000000000000000000000000000000000000000000000008152600401610ab190614fc9565b60405180910390fd5b8060048190555050565b60008060009054906101000a900473ffffffffffffffffffffffffffffffffffffffff1673ffffffffffffffffffffffffffffffffffffffff163373ffffffffffffffffffffffffffffffffffffffff1614610b55576040517f08c379a0000000000000000000000000000000000000000000000000000000008152600401610b4c90614fc9565b60405180910390fd5b600e54905090565b6000600554905090565b60008054906101000a900473ffffffffffffffffffffffffffffffffffffffff1673ffffffffffffffffffffffffffffffffffffffff163373ffffffffffffffffffffffffffffffffffffffff1614610bf5576040517f08c379a0000000000000000000000000000000000000000000000000000000008152600401610bec90614fc9565b60405180910390fd5b8060038190555050565b6000601060003373ffffffffffffffffffffffffffffffffffffffff1673ffffffffffffffffffffffffffffffffffffffff1681526020019081526020016000205411610c81576040517f08c379a0000000000000000000000000000000000000000000000000000000008152600401610c7890615035565b60405180910390fd5b6000601060003373ffffffffffffffffffffffffffffffffffffffff1673ffffffffffffffffffffffffffffffffffffffff1681526020019081526020016000205490506000601060003373ffffffffffffffffffffffffffffffffffffffff1673ffffffffffffffffffffffffffffffffffffffff16815260200190815260200160002081905550600160009054906101000a900473ffffffffffffffffffffffffffffffffffffffff1673ffffffffffffffffffffffffffffffffffffffff1663a9059cbb33836040518363ffffffff1660e01b8152600401610d67929190615064565b6020604051808303816000875af1158015610d86573d6000803e3d6000fd5b505050506040513d601f19601f82011682018060405250810190610daa91906150a2565b5080600f6000828254610dbd91906150cf565b9250508190555050565b60008060009054906101000a900473ffffffffffffffffffffffffffffffffffffffff1673ffffffffffffffffffffffffffffffffffffffff163373ffffffffffffffffffffffffffffffffffffffff1614610e58576040517f08c379a0000000000000000000000000000000000000000000000000000000008152600401610e4f90614fc9565b60405180910390fd5b600960009054906101000a900460ff16905090565b60008054906101000a900473ffffffffffffffffffffffffffffffffffffffff1673ffffffffffffffffffffffffffffffffffffffff163373ffffffffffffffffffffffffffffffffffffffff1614610efb576040517f08c379a0000000000000000000000000000000000000000000000000000000008152600401610ef290614fc9565b60405180910390fd5b80600960006101000a81548160ff02191690831515021790555050565b81600160009054906101000a900473ffffffffffffffffffffffffffffffffffffffff1673ffffffffffffffffffffffffffffffffffffffff166370a08231836040518263ffffffff1660e01b8152600401610f749190615103565b602060405180830381865afa158015610f91573d6000803e3d6000fd5b505050506040513d601f19601f82011682018060405250810190610fb59190615133565b1015610ff6576040517f08c379a0000000000000000000000000000000000000000000000000000000008152600401610fed906151ac565b60405180910390fd5b81600160009054906101000a900473ffffffffffffffffffffffffffffffffffffffff1673ffffffffffffffffffffffffffffffffffffffff1663dd62ed3e83306040518363ffffffff1660e01b81526004016110549291906151cc565b602060405180830381865afa158015611071573d6000803e3d6000fd5b505050506040513d601f19601f820116820180604052508101906110959190615133565b10156110d6576040517f08c379a00000000000000000000000000000000000000000000000000000000081526004016110cd90615241565b60405180910390fd5b600160009054906101000a900473ffffffffffffffffffffffffffffffffffffffff1673ffffffffffffffffffffffffffffffffffffffff166323b872dd8230856040518463ffffffff1660e01b815260040161113593929190615261565b6020604051808303816000875af1158015611154573d6000803e3d6000fd5b505050506040513d601f19601f8201168201806040525081019061117891906150a2565b5081601060003373ffffffffffffffffffffffffffffffffffffffff1673ffffffffffffffffffffffffffffffffffffffff16815260200190815260200160002060008282546111c891906146d8565b9250508190555081600f60008282546111e191906146d8565b925050819055505050565b600073ffffffffffffffffffffffffffffffffffffffff163373ffffffffffffffffffffffffffffffffffffffff160361125b576040517f08c379a0000000000000000000000000000000000000000000000000000000008152600401611252906152e4565b60405180910390fd5b60011515600960009054906101000a900460ff161515146112b1576040517f08c379a00000000000000000000000000000000000000000000000000000000081526004016112a890615350565b60405180910390fd5b600354600160009054906101000a900473ffffffffffffffffffffffffffffffffffffffff1673ffffffffffffffffffffffffffffffffffffffff166370a08231306040518263ffffffff1660e01b815260040161130f9190615103565b602060405180830381865afa15801561132c573d6000803e3d6000fd5b505050506040513d601f19601f820116820180604052508101906113509190615133565b1015611391576040517f08c379a0000000000000000000000000000000000000000000000000000000008152600401611388906153bc565b60405180910390fd5b601460003373ffffffffffffffffffffffffffffffffffffffff1673ffffffffffffffffffffffffffffffffffffffff16815260200190815260200160002054421015611413576040517f08c379a000000000000000000000000000000000000000000000000000000000815260040161140a90615428565b60405180910390fd5b6008544261142191906146d8565b601460003373ffffffffffffffffffffffffffffffffffffffff1673ffffffffffffffffffffffffffffffffffffffff16815260200190815260200160002081905550600160009054906101000a900473ffffffffffffffffffffffffffffffffffffffff1673ffffffffffffffffffffffffffffffffffffffff1663a9059cbb336003546040518363ffffffff1660e01b81526004016114c3929190615064565b6020604051808303816000875af11580156114e2573d6000803e3d6000fd5b505050506040513d601f19601f8201168201806040525081019061150691906150a2565b50565b60008060009054906101000a900473ffffffffffffffffffffffffffffffffffffffff1673ffffffffffffffffffffffffffffffffffffffff163373ffffffffffffffffffffffffffffffffffffffff161461159a576040517f08c379a000000000000000000000000000000000000000000000000000000000815260040161159190614fc9565b60405180910390fd5b600b54905090565b80601160003373ffffffffffffffffffffffffffffffffffffffff1673ffffffffffffffffffffffffffffffffffffffff168152602001908152602001600020541015611624576040517f08c379a000000000000000000000000000000000000000000000000000000000815260040161161b90615035565b60405180910390fd5b80601160003373ffffffffffffffffffffffffffffffffffffffff1673ffffffffffffffffffffffffffffffffffffffff168152602001908152602001600020600082825461167391906150cf565b925050819055503373ffffffffffffffffffffffffffffffffffffffff166108fc829081150290604051600060405180830381858888f193505050501580156116c0573d6000803e3d6000fd5b5080600c60008282546116d391906150cf565b9250508190555050565b60008054906101000a900473ffffffffffffffffffffffffffffffffffffffff1673ffffffffffffffffffffffffffffffffffffffff163373ffffffffffffffffffffffffffffffffffffffff161461176b576040517f08c379a000000000000000000000000000000000000000000000000000000000815260040161176290614fc9565b60405180910390fd5b8060078190555050565b60008060009054906101000a900473ffffffffffffffffffffffffffffffffffffffff1673ffffffffffffffffffffffffffffffffffffffff163373ffffffffffffffffffffffffffffffffffffffff1614611806576040517f08c379a00000000000000000000000000000000000000000000000000000000081526004016117fd90614fc9565b60405180910390fd5b600c54905090565b6000601060003373ffffffffffffffffffffffffffffffffffffffff1673ffffffffffffffffffffffffffffffffffffffff16815260200190815260200160002054905090565b6000600654905090565b6000601160003373ffffffffffffffffffffffffffffffffffffffff1673ffffffffffffffffffffffffffffffffffffffff16815260200190815260200160002054905090565b6000601160003373ffffffffffffffffffffffffffffffffffffffff1673ffffffffffffffffffffffffffffffffffffffff1681526020019081526020016000205411611928576040517f08c379a000000000000000000000000000000000000000000000000000000000815260040161191f90615494565b60405180910390fd5b6000601160003373ffffffffffffffffffffffffffffffffffffffff1673ffffffffffffffffffffffffffffffffffffffff1681526020019081526020016000205490506000601160003373ffffffffffffffffffffffffffffffffffffffff1673ffffffffffffffffffffffffffffffffffffffff168152602001908152602001600020819055503373ffffffffffffffffffffffffffffffffffffffff166108fc829081150290604051600060405180830381858888f193505050501580156119f7573d6000803e3d6000fd5b5080600c6000828254611a0a91906150cf565b9250508190555050565b611a1c614583565b611a6983838080601f016020809104026020016040519081016040528093929190818152602001838380828437600081840152601f19601f82011690508083019250505050505050612824565b611a7257600080fd5b6000611ac184848080601f016020809104026020016040519081016040528093929190818152602001838380828437600081840152601f19601f82011690508083019250505050505050613d7d565b90506040518060c001604052806015600084815260200190815260200160002060000160009054906101000a900473ffffffffffffffffffffffffffffffffffffffff1673ffffffffffffffffffffffffffffffffffffffff1681526020016015600084815260200190815260200160002060010160009054906101000a900473ffffffffffffffffffffffffffffffffffffffff1673ffffffffffffffffffffffffffffffffffffffff1681526020016015600084815260200190815260200160002060010160149054906101000a900460ff161515815260200160156000848152602001908152602001600020600201548152602001601560008481526020019081526020016000206003015481526020016015600084815260200190815260200160002060040160009054906101000a900460ff16151581525091505092915050565b80601060003373ffffffffffffffffffffffffffffffffffffffff1673ffffffffffffffffffffffffffffffffffffffff168152602001908152602001600020541015611c89576040517f08c379a0000000000000000000000000000000000000000000000000000000008152600401611c8090615035565b60405180910390fd5b80601060003373ffffffffffffffffffffffffffffffffffffffff1673ffffffffffffffffffffffffffffffffffffffff1681526020019081526020016000206000828254611cd891906150cf565b92505081905550600160009054906101000a900473ffffffffffffffffffffffffffffffffffffffff1673ffffffffffffffffffffffffffffffffffffffff1663a9059cbb33836040518363ffffffff1660e01b8152600401611d3c929190615064565b6020604051808303816000875af1158015611d5b573d6000803e3d6000fd5b505050506040513d601f19601f82011682018060405250810190611d7f91906150a2565b5080600f6000828254611d9291906150cf565b9250508190555050565b60008054906101000a900473ffffffffffffffffffffffffffffffffffffffff1673ffffffffffffffffffffffffffffffffffffffff163373ffffffffffffffffffffffffffffffffffffffff1614611e2a576040517f08c379a0000000000000000000000000000000000000000000000000000000008152600401611e2190614fc9565b60405180910390fd5b8060068190555050565b6060611e8383838080601f016020809104026020016040519081016040528093929190818152602001838380828437600081840152601f19601f82011690508083019250505050505050612824565b611e8c57600080fd5b6000611edb84848080601f016020809104026020016040519081016040528093929190818152602001838380828437600081840152601f19601f82011690508083019250505050505050613d7d565b905060136000828152602001908152602001600020805480602002602001604051908101604052809291908181526020018280548015611f7057602002820191906000526020600020905b8160009054906101000a900473ffffffffffffffffffffffffffffffffffffffff1673ffffffffffffffffffffffffffffffffffffffff1681526020019060010190808311611f26575b505050505091505092915050565b611f866145e9565b611fd383838080601f016020809104026020016040519081016040528093929190818152602001838380828437600081840152601f19601f82011690508083019250505050505050612824565b611fdc57600080fd5b600061202b84848080601f016020809104026020016040519081016040528093929190818152602001838380828437600081840152601f19601f82011690508083019250505050505050613d7d565b905060405180606001604052806012600084815260200190815260200160002060000160009054906101000a900473ffffffffffffffffffffffffffffffffffffffff1673ffffffffffffffffffffffffffffffffffffffff168152602001601260008481526020019081526020016000206001015481526020016012600084815260200190815260200160002060020160009054906101000a900460ff16151581525091505092915050565b60008054906101000a900473ffffffffffffffffffffffffffffffffffffffff1681565b60008054906101000a900473ffffffffffffffffffffffffffffffffffffffff1673ffffffffffffffffffffffffffffffffffffffff163373ffffffffffffffffffffffffffffffffffffffff161461218a576040517f08c379a000000000000000000000000000000000000000000000000000000000815260040161218190614fc9565b60405180910390fd5b6000600d54116121cf576040517f08c379a00000000000000000000000000000000000000000000000000000000081526004016121c690615035565b60405180910390fd5b600160009054906101000a900473ffffffffffffffffffffffffffffffffffffffff1673ffffffffffffffffffffffffffffffffffffffff1663a9059cbb60008054906101000a900473ffffffffffffffffffffffffffffffffffffffff16600d546040518363ffffffff1660e01b815260040161224e9291906154d5565b6020604051808303816000875af115801561226d573d6000803e3d6000fd5b505050506040513d601f19601f8201168201806040525081019061229191906150a2565b50600d54600f60008282546122a691906150cf565b925050819055506000600d81905550565b8180156122c15750805b15612301576040517f08c379a00000000000000000000000000000000000000000000000000000000081526004016122f89061554a565b60405180910390fd5b61234e84848080601f016020809104026020016040519081016040528093929190818152602001838380828437600081840152601f19601f82011690508083019250505050505050612824565b61235757600080fd5b60006123a685858080601f016020809104026020016040519081016040528093929190818152602001838380828437600081840152601f19601f82011690508083019250505050505050613d7d565b9050600015156012600083815260200190815260200160002060020160009054906101000a900460ff16151514612412576040517f08c379a0000000000000000000000000000000000000000000000000000000008152600401612409906155b6565b60405180910390fd5b60001515821515036125e557600015158315150361253d57600454601060003373ffffffffffffffffffffffffffffffffffffffff1673ffffffffffffffffffffffffffffffffffffffff1681526020019081526020016000205410156124ae576040517f08c379a00000000000000000000000000000000000000000000000000000000081526004016124a590615035565b60405180910390fd5b600454601060003373ffffffffffffffffffffffffffffffffffffffff1673ffffffffffffffffffffffffffffffffffffffff16815260200190815260200160002060008282546124ff91906150cf565b92505081905550600454600d600082825461251a91906146d8565b92505081905550600454600e600082825461253591906146d8565b925050819055505b60011515831515036125e45761255560045433610f18565b600454601060003373ffffffffffffffffffffffffffffffffffffffff1673ffffffffffffffffffffffffffffffffffffffff16815260200190815260200160002060008282546125a691906150cf565b92505081905550600454600d60008282546125c191906146d8565b92505081905550600454600e60008282546125dc91906146d8565b925050819055505b5b600115158215150361270457600654601160003373ffffffffffffffffffffffffffffffffffffffff1673ffffffffffffffffffffffffffffffffffffffff168152602001908152602001600020541015612675576040517f08c379a000000000000000000000000000000000000000000000000000000000815260040161266c90615494565b60405180910390fd5b600654601160003373ffffffffffffffffffffffffffffffffffffffff1673ffffffffffffffffffffffffffffffffffffffff16815260200190815260200160002060008282546126c691906150cf565b92505081905550600654600a60008282546126e191906146d8565b92505081905550600654600b60008282546126fc91906146d8565b925050819055505b336012600083815260200190815260200160002060000160006101000a81548173ffffffffffffffffffffffffffffffffffffffff021916908373ffffffffffffffffffffffffffffffffffffffff16021790555042601260008381526020019081526020016000206001018190555060016012600083815260200190815260200160002060020160006101000a81548160ff02191690831515021790555060136000828152602001908152602001600020339080600181540180825580915050600190039060005260206000200160009091909190916101000a81548173ffffffffffffffffffffffffffffffffffffffff021916908373ffffffffffffffffffffffffffffffffffffffff1602179055505050505050565b60025481565b60008082905060008151905060208114612873576040517f08c379a000000000000000000000000000000000000000000000000000000000815260040161286a90615622565b60405180910390fd5b600192505050919050565b6000600754905090565b60008054906101000a900473ffffffffffffffffffffffffffffffffffffffff1673ffffffffffffffffffffffffffffffffffffffff163373ffffffffffffffffffffffffffffffffffffffff1614612916576040517f08c379a000000000000000000000000000000000000000000000000000000000815260040161290d90614fc9565b60405180910390fd5b6001816129239190615642565b60088190555050565b60008060009054906101000a900473ffffffffffffffffffffffffffffffffffffffff1673ffffffffffffffffffffffffffffffffffffffff163373ffffffffffffffffffffffffffffffffffffffff16146129bd576040517f08c379a00000000000000000000000000000000000000000000000000000000081526004016129b490614fc9565b60405180910390fd5b600854905090565b612a1284848080601f016020809104026020016040519081016040528093929190818152602001838380828437600081840152601f19601f82011690508083019250505050505050612824565b612a1b57600080fd5b6000612a6a85858080601f016020809104026020016040519081016040528093929190818152602001838380828437600081840152601f19601f82011690508083019250505050505050613d7d565b9050828015612a765750815b15612ab6576040517f08c379a0000000000000000000000000000000000000000000000000000000008152600401612aad9061554a565b60405180910390fd5b3373ffffffffffffffffffffffffffffffffffffffff166015600083815260200190815260200160002060010160009054906101000a900473ffffffffffffffffffffffffffffffffffffffff1673ffffffffffffffffffffffffffffffffffffffff1614612b5a576040517f08c379a0000000000000000000000000000000000000000000000000000000008152600401612b51906156d0565b60405180910390fd5b85601560008381526020019081526020016000206002015414612bb2576040517f08c379a0000000000000000000000000000000000000000000000000000000008152600401612ba99061573c565b60405180910390fd5b6015600082815260200190815260200160002060010160149054906101000a900460ff16151582151514612c1b576040517f08c379a0000000000000000000000000000000000000000000000000000000008152600401612c12906157a8565b60405180910390fd5b6008546015600083815260200190815260200160002060030154612c3f91906146d8565b4210612c80576040517f08c379a0000000000000000000000000000000000000000000000000000000008152600401612c7790615814565b60405180910390fd5b600015156015600083815260200190815260200160002060010160149054906101000a900460ff16151503613138576000151583151503612e5d5785601060003373ffffffffffffffffffffffffffffffffffffffff1673ffffffffffffffffffffffffffffffffffffffff168152602001908152602001600020541015612d0757600080fd5b85600f541015612d1657600080fd5b85601060003373ffffffffffffffffffffffffffffffffffffffff1673ffffffffffffffffffffffffffffffffffffffff1681526020019081526020016000206000828254612d6591906150cf565b9250508190555085600f6000828254612d7e91906150cf565b92505081905550600160009054906101000a900473ffffffffffffffffffffffffffffffffffffffff1673ffffffffffffffffffffffffffffffffffffffff1663a9059cbb6015600084815260200190815260200160002060000160009054906101000a900473ffffffffffffffffffffffffffffffffffffffff16886040518363ffffffff1660e01b8152600401612e18929190615064565b6020604051808303816000875af1158015612e37573d6000803e3d6000fd5b505050506040513d601f19601f82011682018060405250810190612e5b91906150a2565b505b60011515831515036131375785600160009054906101000a900473ffffffffffffffffffffffffffffffffffffffff1673ffffffffffffffffffffffffffffffffffffffff1663dd62ed3e336015600086815260200190815260200160002060000160009054906101000a900473ffffffffffffffffffffffffffffffffffffffff166040518363ffffffff1660e01b8152600401612efd9291906151cc565b602060405180830381865afa158015612f1a573d6000803e3d6000fd5b505050506040513d601f19601f82011682018060405250810190612f3e9190615133565b1015612f7f576040517f08c379a0000000000000000000000000000000000000000000000000000000008152600401612f7690615880565b60405180910390fd5b85600160009054906101000a900473ffffffffffffffffffffffffffffffffffffffff1673ffffffffffffffffffffffffffffffffffffffff166370a08231336040518263ffffffff1660e01b8152600401612fdb9190615103565b602060405180830381865afa158015612ff8573d6000803e3d6000fd5b505050506040513d601f19601f8201168201806040525081019061301c9190615133565b101561305d576040517f08c379a0000000000000000000000000000000000000000000000000000000008152600401613054906158ec565b60405180910390fd5b600160009054906101000a900473ffffffffffffffffffffffffffffffffffffffff1673ffffffffffffffffffffffffffffffffffffffff166323b872dd336015600085815260200190815260200160002060000160009054906101000a900473ffffffffffffffffffffffffffffffffffffffff16896040518463ffffffff1660e01b81526004016130f293929190615261565b6020604051808303816000875af1158015613111573d6000803e3d6000fd5b505050506040513d601f19601f8201168201806040525081019061313591906150a2565b505b5b600115156015600083815260200190815260200160002060010160149054906101000a900460ff161515036133305785601160003373ffffffffffffffffffffffffffffffffffffffff1673ffffffffffffffffffffffffffffffffffffffff1681526020019081526020016000205410156131e9576040517f08c379a00000000000000000000000000000000000000000000000000000000081526004016131e0906158ec565b60405180910390fd5b85600c54101561322e576040517f08c379a000000000000000000000000000000000000000000000000000000000815260040161322590615958565b60405180910390fd5b60006012600083815260200190815260200160002060000160009054906101000a900473ffffffffffffffffffffffffffffffffffffffff16905086601160003373ffffffffffffffffffffffffffffffffffffffff1673ffffffffffffffffffffffffffffffffffffffff16815260200190815260200160002060008282546132b891906150cf565b9250508190555086601160008373ffffffffffffffffffffffffffffffffffffffff1673ffffffffffffffffffffffffffffffffffffffff168152602001908152602001600020600082825461330e91906146d8565b9250508190555086600c600082825461332791906150cf565b92505081905550505b336012600083815260200190815260200160002060000160006101000a81548173ffffffffffffffffffffffffffffffffffffffff021916908373ffffffffffffffffffffffffffffffffffffffff16021790555060136000828152602001908152602001600020339080600181540180825580915050600190039060005260206000200160009091909190916101000a81548173ffffffffffffffffffffffffffffffffffffffff021916908373ffffffffffffffffffffffffffffffffffffffff16021790555060006015600083815260200190815260200160002060000160006101000a81548173ffffffffffffffffffffffffffffffffffffffff021916908373ffffffffffffffffffffffffffffffffffffffff16021790555060006015600083815260200190815260200160002060010160006101000a81548173ffffffffffffffffffffffffffffffffffffffff021916908373ffffffffffffffffffffffffffffffffffffffff16021790555060006015600083815260200190815260200160002060010160146101000a81548160ff021916908315150217905550600060156000838152602001908152602001600020600201819055506000601560008381526020019081526020016000206003018190555060006015600083815260200190815260200160002060040160006101000a81548160ff021916908315150217905550505050505050565b60008060009054906101000a900473ffffffffffffffffffffffffffffffffffffffff1673ffffffffffffffffffffffffffffffffffffffff163373ffffffffffffffffffffffffffffffffffffffff16146135d4576040517f08c379a00000000000000000000000000000000000000000000000000000000081526004016135cb90614fc9565b60405180910390fd5b600d54905090565b61362986868080601f016020809104026020016040519081016040528093929190818152602001838380828437600081840152601f19601f82011690508083019250505050505050612824565b61363257600080fd5b600061368187878080601f016020809104026020016040519081016040528093929190818152602001838380828437600081840152601f19601f82011690508083019250505050505050613d7d565b9050600073ffffffffffffffffffffffffffffffffffffffff166012600083815260200190815260200160002060000160009054906101000a900473ffffffffffffffffffffffffffffffffffffffff1673ffffffffffffffffffffffffffffffffffffffff1603613728576040517f08c379a000000000000000000000000000000000000000000000000000000000815260040161371f906159c4565b60405180910390fd5b3373ffffffffffffffffffffffffffffffffffffffff166012600083815260200190815260200160002060000160009054906101000a900473ffffffffffffffffffffffffffffffffffffffff1673ffffffffffffffffffffffffffffffffffffffff16146137cc576040517f08c379a00000000000000000000000000000000000000000000000000000000081526004016137c390615a30565b60405180910390fd5b8280156137d65750815b15613816576040517f08c379a000000000000000000000000000000000000000000000000000000000815260040161380d9061554a565b60405180910390fd5b600015156015600083815260200190815260200160002060040160009054906101000a900460ff16151514613880576040517f08c379a000000000000000000000000000000000000000000000000000000000815260040161387790615a9c565b60405180910390fd5b6000151582151503613af557600015158315150361391d57600554601060003373ffffffffffffffffffffffffffffffffffffffff1673ffffffffffffffffffffffffffffffffffffffff16815260200190815260200160002054101561391c576040517f08c379a000000000000000000000000000000000000000000000000000000000815260040161391390615035565b60405180910390fd5b5b6001151583151503613a6657600554600160009054906101000a900473ffffffffffffffffffffffffffffffffffffffff1673ffffffffffffffffffffffffffffffffffffffff1663dd62ed3e33306040518363ffffffff1660e01b81526004016139899291906151cc565b602060405180830381865afa1580156139a6573d6000803e3d6000fd5b505050506040513d601f19601f820116820180604052508101906139ca9190615133565b1015613a0b576040517f08c379a0000000000000000000000000000000000000000000000000000000008152600401613a0290615241565b60405180910390fd5b613a1760055433610f18565b600554601060003373ffffffffffffffffffffffffffffffffffffffff1673ffffffffffffffffffffffffffffffffffffffff168152602001908152602001600020541015613a6557600080fd5b5b600554601060003373ffffffffffffffffffffffffffffffffffffffff1673ffffffffffffffffffffffffffffffffffffffff1681526020019081526020016000206000828254613ab791906150cf565b92505081905550600554600d6000828254613ad291906146d8565b92505081905550600554600e6000828254613aed91906146d8565b925050819055505b6001151582151503613c1457600754601160003373ffffffffffffffffffffffffffffffffffffffff1673ffffffffffffffffffffffffffffffffffffffff168152602001908152602001600020541015613b85576040517f08c379a0000000000000000000000000000000000000000000000000000000008152600401613b7c90615494565b60405180910390fd5b600754601160003373ffffffffffffffffffffffffffffffffffffffff1673ffffffffffffffffffffffffffffffffffffffff1681526020019081526020016000206000828254613bd691906150cf565b92505081905550600754600a6000828254613bf191906146d8565b92505081905550600754600b6000828254613c0c91906146d8565b925050819055505b6040518060c001604052803373ffffffffffffffffffffffffffffffffffffffff1681526020018573ffffffffffffffffffffffffffffffffffffffff1681526020018315158152602001868152602001428152602001600115158152506015600083815260200190815260200160002060008201518160000160006101000a81548173ffffffffffffffffffffffffffffffffffffffff021916908373ffffffffffffffffffffffffffffffffffffffff16021790555060208201518160010160006101000a81548173ffffffffffffffffffffffffffffffffffffffff021916908373ffffffffffffffffffffffffffffffffffffffff16021790555060408201518160010160146101000a81548160ff021916908315150217905550606082015181600201556080820151816003015560a08201518160040160006101000a81548160ff02191690831515021790555090505050505050505050565b6000600454905090565b600081604051602001613d909190615b2d565b604051602081830303815290604052805190602001209050919050565b60008054906101000a900473ffffffffffffffffffffffffffffffffffffffff1673ffffffffffffffffffffffffffffffffffffffff163373ffffffffffffffffffffffffffffffffffffffff1614613e3b576040517f08c379a0000000000000000000000000000000000000000000000000000000008152600401613e3290614fc9565b60405180910390fd5b6000600a5411613e80576040517f08c379a0000000000000000000000000000000000000000000000000000000008152600401613e7790615494565b60405180910390fd5b600a5460008054906101000a900473ffffffffffffffffffffffffffffffffffffffff1673ffffffffffffffffffffffffffffffffffffffff167f7fcf532c15f0a6db0bd6d0e038bea71d30d808c7d98cb3bf7268a95bf5081b6560405160405180910390a360008054906101000a900473ffffffffffffffffffffffffffffffffffffffff1673ffffffffffffffffffffffffffffffffffffffff166108fc600a549081150290604051600060405180830381858888f19350505050158015613f4e573d6000803e3d6000fd5b50600a54600c6000828254613f6391906150cf565b925050819055506000600a81905550565b60003411613fb7576040517f08c379a0000000000000000000000000000000000000000000000000000000008152600401613fae9061467f565b60405180910390fd5b34601160003373ffffffffffffffffffffffffffffffffffffffff1673ffffffffffffffffffffffffffffffffffffffff168152602001908152602001600020600082825461400691906146d8565b9250508190555034600c600082825461401f91906146d8565b92505081905550565b60008060009054906101000a900473ffffffffffffffffffffffffffffffffffffffff1673ffffffffffffffffffffffffffffffffffffffff163373ffffffffffffffffffffffffffffffffffffffff16146140b9576040517f08c379a00000000000000000000000000000000000000000000000000000000081526004016140b090614fc9565b60405180910390fd5b600f54905090565b6000600354905090565b61411882828080601f016020809104026020016040519081016040528093929190818152602001838380828437600081840152601f19601f82011690508083019250505050505050612824565b61412157600080fd5b600061417083838080601f016020809104026020016040519081016040528093929190818152602001838380828437600081840152601f19601f82011690508083019250505050505050613d7d565b90503373ffffffffffffffffffffffffffffffffffffffff166012600083815260200190815260200160002060000160009054906101000a900473ffffffffffffffffffffffffffffffffffffffff1673ffffffffffffffffffffffffffffffffffffffff1614614216576040517f08c379a000000000000000000000000000000000000000000000000000000000815260040161420d90615a30565b60405180910390fd5b600854601560008381526020019081526020016000206003015461423a91906146d8565b421161427b576040517f08c379a000000000000000000000000000000000000000000000000000000000815260040161427290615b90565b60405180910390fd5b600115156015600083815260200190815260200160002060040160009054906101000a900460ff161515146142e5576040517f08c379a00000000000000000000000000000000000000000000000000000000081526004016142dc90615bfc565b60405180910390fd5b60006015600083815260200190815260200160002060000160006101000a81548173ffffffffffffffffffffffffffffffffffffffff021916908373ffffffffffffffffffffffffffffffffffffffff16021790555060006015600083815260200190815260200160002060010160006101000a81548173ffffffffffffffffffffffffffffffffffffffff021916908373ffffffffffffffffffffffffffffffffffffffff16021790555060006015600083815260200190815260200160002060010160146101000a81548160ff021916908315150217905550600060156000838152602001908152602001600020600201819055506000601560008381526020019081526020016000206003018190555060006015600083815260200190815260200160002060040160006101000a81548160ff021916908315150217905550505050565b60008060009054906101000a900473ffffffffffffffffffffffffffffffffffffffff1673ffffffffffffffffffffffffffffffffffffffff163373ffffffffffffffffffffffffffffffffffffffff16146144bd576040517f08c379a00000000000000000000000000000000000000000000000000000000081526004016144b490614fc9565b60405180910390fd5b600a54905090565b60008054906101000a900473ffffffffffffffffffffffffffffffffffffffff1673ffffffffffffffffffffffffffffffffffffffff163373ffffffffffffffffffffffffffffffffffffffff1614614553576040517f08c379a000000000000000000000000000000000000000000000000000000000815260040161454a90614fc9565b60405180910390fd5b8060058190555050565b600160009054906101000a900473ffffffffffffffffffffffffffffffffffffffff1681565b6040518060c00160405280600073ffffffffffffffffffffffffffffffffffffffff168152602001600073ffffffffffffffffffffffffffffffffffffffff16815260200160001515815260200160008152602001600081526020016000151581525090565b6040518060600160405280600073ffffffffffffffffffffffffffffffffffffffff168152602001600081526020016000151581525090565b600082825260208201905092915050565b7f6e6f7420616c6c6f772030000000000000000000000000000000000000000000600082015250565b6000614669600b83614622565b915061467482614633565b602082019050919050565b600060208201905081810360008301526146988161465c565b9050919050565b6000819050919050565b7f4e487b7100000000000000000000000000000000000000000000000000000000600052601160045260246000fd5b60006146e38261469f565b91506146ee8361469f565b9250828201905080821115614706576147056146a9565b5b92915050565b6000604051905090565b600080fd5b600080fd5b6147298161469f565b811461473457600080fd5b50565b60008135905061474681614720565b92915050565b60006020828403121561476257614761614716565b5b600061477084828501614737565b91505092915050565b6147828161469f565b82525050565b600060208201905061479d6000830184614779565b92915050565b60008115159050919050565b6147b8816147a3565b82525050565b60006020820190506147d360008301846147af565b92915050565b6147e2816147a3565b81146147ed57600080fd5b50565b6000813590506147ff816147d9565b92915050565b60006020828403121561481b5761481a614716565b5b6000614829848285016147f0565b91505092915050565b600073ffffffffffffffffffffffffffffffffffffffff82169050919050565b600061485d82614832565b9050919050565b61486d81614852565b811461487857600080fd5b50565b60008135905061488a81614864565b92915050565b600080604083850312156148a7576148a6614716565b5b60006148b585828601614737565b92505060206148c68582860161487b565b9150509250929050565b600080fd5b600080fd5b600080fd5b60008083601f8401126148f5576148f46148d0565b5b8235905067ffffffffffffffff811115614912576149116148d5565b5b60208301915083600182028301111561492e5761492d6148da565b5b9250929050565b6000806020838503121561494c5761494b614716565b5b600083013567ffffffffffffffff81111561496a5761496961471b565b5b614976858286016148df565b92509250509250929050565b61498b81614852565b82525050565b61499a816147a3565b82525050565b6149a98161469f565b82525050565b60c0820160008201516149c56000850182614982565b5060208201516149d86020850182614982565b5060408201516149eb6040850182614991565b5060608201516149fe60608501826149a0565b506080820151614a1160808501826149a0565b5060a0820151614a2460a0850182614991565b50505050565b600060c082019050614a3f60008301846149af565b92915050565b600081519050919050565b600082825260208201905092915050565b6000819050602082019050919050565b6000614a7d8383614982565b60208301905092915050565b6000602082019050919050565b6000614aa182614a45565b614aab8185614a50565b9350614ab683614a61565b8060005b83811015614ae7578151614ace8882614a71565b9750614ad983614a89565b925050600181019050614aba565b5085935050505092915050565b60006020820190508181036000830152614b0e8184614a96565b905092915050565b606082016000820151614b2c6000850182614982565b506020820151614b3f60208501826149a0565b506040820151614b526040850182614991565b50505050565b6000606082019050614b6d6000830184614b16565b92915050565b6000614b7e82614832565b9050919050565b614b8e81614b73565b82525050565b6000602082019050614ba96000830184614b85565b92915050565b60008060008060608587031215614bc957614bc8614716565b5b600085013567ffffffffffffffff811115614be757614be661471b565b5b614bf3878288016148df565b94509450506020614c06878288016147f0565b9250506040614c17878288016147f0565b91505092959194509250565b600080fd5b6000601f19601f8301169050919050565b7f4e487b7100000000000000000000000000000000000000000000000000000000600052604160045260246000fd5b614c7182614c28565b810181811067ffffffffffffffff82111715614c9057614c8f614c39565b5b80604052505050565b6000614ca361470c565b9050614caf8282614c68565b919050565b600067ffffffffffffffff821115614ccf57614cce614c39565b5b614cd882614c28565b9050602081019050919050565b82818337600083830152505050565b6000614d07614d0284614cb4565b614c99565b905082815260208101848484011115614d2357614d22614c23565b5b614d2e848285614ce5565b509392505050565b600082601f830112614d4b57614d4a6148d0565b5b8135614d5b848260208601614cf4565b91505092915050565b600060208284031215614d7a57614d79614716565b5b600082013567ffffffffffffffff811115614d9857614d9761471b565b5b614da484828501614d36565b91505092915050565b600080600080600060808688031215614dc957614dc8614716565b5b6000614dd788828901614737565b955050602086013567ffffffffffffffff811115614df857614df761471b565b5b614e04888289016148df565b94509450506040614e17888289016147f0565b9250506060614e28888289016147f0565b9150509295509295909350565b60008060008060008060a08789031215614e5257614e51614716565b5b600087013567ffffffffffffffff811115614e7057614e6f61471b565b5b614e7c89828a016148df565b96509650506020614e8f89828a01614737565b9450506040614ea089828a0161487b565b9350506060614eb189828a016147f0565b9250506080614ec289828a016147f0565b9150509295509295509295565b6000819050919050565b614ee281614ecf565b82525050565b6000602082019050614efd6000830184614ed9565b92915050565b6000819050919050565b6000614f28614f23614f1e84614832565b614f03565b614832565b9050919050565b6000614f3a82614f0d565b9050919050565b6000614f4c82614f2f565b9050919050565b614f5c81614f41565b82525050565b6000602082019050614f776000830184614f53565b92915050565b7f6f776e6572206f6e6c7900000000000000000000000000000000000000000000600082015250565b6000614fb3600a83614622565b9150614fbe82614f7d565b602082019050919050565b60006020820190508181036000830152614fe281614fa6565b9050919050565b7f6e6f204950540000000000000000000000000000000000000000000000000000600082015250565b600061501f600683614622565b915061502a82614fe9565b602082019050919050565b6000602082019050818103600083015261504e81615012565b9050919050565b61505e81614852565b82525050565b60006040820190506150796000830185615055565b6150866020830184614779565b9392505050565b60008151905061509c816147d9565b92915050565b6000602082840312156150b8576150b7614716565b5b60006150c68482850161508d565b91505092915050565b60006150da8261469f565b91506150e58361469f565b92508282039050818111156150fd576150fc6146a9565b5b92915050565b60006020820190506151186000830184615055565b92915050565b60008151905061512d81614720565b92915050565b60006020828403121561514957615148614716565b5b60006151578482850161511e565b91505092915050565b7f4e6f2066756e6473000000000000000000000000000000000000000000000000600082015250565b6000615196600883614622565b91506151a182615160565b602082019050919050565b600060208201905081810360008301526151c581615189565b9050919050565b60006040820190506151e16000830185615055565b6151ee6020830184615055565b9392505050565b7f4e6f20616c6c6f77616e63650000000000000000000000000000000000000000600082015250565b600061522b600c83614622565b9150615236826151f5565b602082019050919050565b6000602082019050818103600083015261525a8161521e565b9050919050565b60006060820190506152766000830186615055565b6152836020830185615055565b6152906040830184614779565b949350505050565b7f726571756573742066726f6d2030000000000000000000000000000000000000600082015250565b60006152ce600e83614622565b91506152d982615298565b602082019050919050565b600060208201905081810360008301526152fd816152c1565b9050919050565b7f66617563657420636c6f73656400000000000000000000000000000000000000600082015250565b600061533a600d83614622565b915061534582615304565b602082019050919050565b600060208201905081810360008301526153698161532d565b9050919050565b7f6e6f204950542061760000000000000000000000000000000000000000000000600082015250565b60006153a6600983614622565b91506153b182615370565b602082019050919050565b600060208201905081810360008301526153d581615399565b9050919050565b7f747279206c617465720000000000000000000000000000000000000000000000600082015250565b6000615412600983614622565b915061541d826153dc565b602082019050919050565b6000602082019050818103600083015261544181615405565b9050919050565b7f6e6f204554480000000000000000000000000000000000000000000000000000600082015250565b600061547e600683614622565b915061548982615448565b602082019050919050565b600060208201905081810360008301526154ad81615471565b9050919050565b60006154bf82614f2f565b9050919050565b6154cf816154b4565b82525050565b60006040820190506154ea60008301856154c6565b6154f76020830184614779565b9392505050565b7f63616e7420617070726f76652045544800000000000000000000000000000000600082015250565b6000615534601083614622565b915061553f826154fe565b602082019050919050565b6000602082019050818103600083015261556381615527565b9050919050565b7f6973207265676973746572656400000000000000000000000000000000000000600082015250565b60006155a0600d83614622565b91506155ab8261556a565b602082019050919050565b600060208201905081810360008301526155cf81615593565b9050919050565b7f6d643520696e636f727200000000000000000000000000000000000000000000600082015250565b600061560c600a83614622565b9150615617826155d6565b602082019050919050565b6000602082019050818103600083015261563b816155ff565b9050919050565b600061564d8261469f565b91506156588361469f565b92508282026156668161469f565b9150828204841483151761567d5761567c6146a9565b5b5092915050565b7f6e6f742062757965720000000000000000000000000000000000000000000000600082015250565b60006156ba600983614622565b91506156c582615684565b602082019050919050565b600060208201905081810360008301526156e9816156ad565b9050919050565b7f696e636f72726563742070726963650000000000000000000000000000000000600082015250565b6000615726600f83614622565b9150615731826156f0565b602082019050919050565b6000602082019050818103600083015261575581615719565b9050919050565b7f77726f6e672063757272656e6379000000000000000000000000000000000000600082015250565b6000615792600e83614622565b915061579d8261575c565b602082019050919050565b600060208201905081810360008301526157c181615785565b9050919050565b7f6578706972656400000000000000000000000000000000000000000000000000600082015250565b60006157fe600783614622565b9150615809826157c8565b602082019050919050565b6000602082019050818103600083015261582d816157f1565b9050919050565b7f6e6f20616c6c6f77616e63650000000000000000000000000000000000000000600082015250565b600061586a600c83614622565b915061587582615834565b602082019050919050565b600060208201905081810360008301526158998161585d565b9050919050565b7f6e6f2066756e6473000000000000000000000000000000000000000000000000600082015250565b60006158d6600883614622565b91506158e1826158a0565b602082019050919050565b60006020820190508181036000830152615905816158c9565b9050919050565b7f6e6f204554482068657265000000000000000000000000000000000000000000600082015250565b6000615942600b83614622565b915061594d8261590c565b602082019050919050565b6000602082019050818103600083015261597181615935565b9050919050565b7f6970206e6f742065786973740000000000000000000000000000000000000000600082015250565b60006159ae600c83614622565b91506159b982615978565b602082019050919050565b600060208201905081810360008301526159dd816159a1565b9050919050565b7f6e6f74206f776e65720000000000000000000000000000000000000000000000600082015250565b6000615a1a600983614622565b9150615a25826159e4565b602082019050919050565b60006020820190508181036000830152615a4981615a0d565b9050919050565b7f6e6f7420657869737473206f7220666f722073616c6500000000000000000000600082015250565b6000615a86601683614622565b9150615a9182615a50565b602082019050919050565b60006020820190508181036000830152615ab581615a79565b9050919050565b600081519050919050565b600081905092915050565b60005b83811015615af0578082015181840152602081019050615ad5565b60008484015250505050565b6000615b0782615abc565b615b118185615ac7565b9350615b21818560208601615ad2565b80840191505092915050565b6000615b398284615afc565b915081905092915050565b7f6c6f636b65640000000000000000000000000000000000000000000000000000600082015250565b6000615b7a600683614622565b9150615b8582615b44565b602082019050919050565b60006020820190508181036000830152615ba981615b6d565b9050919050565b7f596f7572206970206973206e6f7420666f722073616c65000000000000000000600082015250565b6000615be6601783614622565b9150615bf182615bb0565b602082019050919050565b60006020820190508181036000830152615c1581615bd9565b905091905056fea264697066735822122091244eb34488ef211f3e1372b8458aa3ae241722a83f5323a9ab7efcb69eb84e64736f6c63430008140033",
  "linkReferences": {},
  "deployedLinkReferences": {}
}